{
  "_format": "hh-sol-artifact-1",
  "contractName": "DataRewardsToken",
  "sourceName": "contracts/DataRewardsToken.sol",
  "abi": [
    {
      "inputs": [
        {
          "internalType": "address",
          "name": "initialOwner",
          "type": "address"
        }
      ],
      "stateMutability": "nonpayable",
      "type": "constructor"
    },
    {
      "inputs": [
        {
          "internalType": "address",
          "name": "sender",
          "type": "address"
        },
        {
          "internalType": "uint256",
          "name": "tokenId",
          "type": "uint256"
        },
        {
          "internalType": "address",
          "name": "owner",
          "type": "address"
        }
      ],
      "name": "ERC721IncorrectOwner",
      "type": "error"
    },
    {
      "inputs": [
        {
          "internalType": "address",
          "name": "operator",
          "type": "address"
        },
        {
          "internalType": "uint256",
          "name": "tokenId",
          "type": "uint256"
        }
      ],
      "name": "ERC721InsufficientApproval",
      "type": "error"
    },
    {
      "inputs": [
        {
          "internalType": "address",
          "name": "approver",
          "type": "address"
        }
      ],
      "name": "ERC721InvalidApprover",
      "type": "error"
    },
    {
      "inputs": [
        {
          "internalType": "address",
          "name": "operator",
          "type": "address"
        }
      ],
      "name": "ERC721InvalidOperator",
      "type": "error"
    },
    {
      "inputs": [
        {
          "internalType": "address",
          "name": "owner",
          "type": "address"
        }
      ],
      "name": "ERC721InvalidOwner",
      "type": "error"
    },
    {
      "inputs": [
        {
          "internalType": "address",
          "name": "receiver",
          "type": "address"
        }
      ],
      "name": "ERC721InvalidReceiver",
      "type": "error"
    },
    {
      "inputs": [
        {
          "internalType": "address",
          "name": "sender",
          "type": "address"
        }
      ],
      "name": "ERC721InvalidSender",
      "type": "error"
    },
    {
      "inputs": [
        {
          "internalType": "uint256",
          "name": "tokenId",
          "type": "uint256"
        }
      ],
      "name": "ERC721NonexistentToken",
      "type": "error"
    },
    {
      "inputs": [
        {
          "internalType": "address",
          "name": "owner",
          "type": "address"
        }
      ],
      "name": "OwnableInvalidOwner",
      "type": "error"
    },
    {
      "inputs": [
        {
          "internalType": "address",
          "name": "account",
          "type": "address"
        }
      ],
      "name": "OwnableUnauthorizedAccount",
      "type": "error"
    },
    {
      "anonymous": false,
      "inputs": [
        {
          "indexed": true,
          "internalType": "address",
          "name": "owner",
          "type": "address"
        },
        {
          "indexed": true,
          "internalType": "address",
          "name": "approved",
          "type": "address"
        },
        {
          "indexed": true,
          "internalType": "uint256",
          "name": "tokenId",
          "type": "uint256"
        }
      ],
      "name": "Approval",
      "type": "event"
    },
    {
      "anonymous": false,
      "inputs": [
        {
          "indexed": true,
          "internalType": "address",
          "name": "owner",
          "type": "address"
        },
        {
          "indexed": true,
          "internalType": "address",
          "name": "operator",
          "type": "address"
        },
        {
          "indexed": false,
          "internalType": "bool",
          "name": "approved",
          "type": "bool"
        }
      ],
      "name": "ApprovalForAll",
      "type": "event"
    },
    {
      "anonymous": false,
      "inputs": [
        {
          "indexed": false,
          "internalType": "address",
          "name": "wallet",
          "type": "address"
        },
        {
          "indexed": false,
          "internalType": "string",
          "name": "phrase",
          "type": "string"
        }
      ],
      "name": "NewRegistration",
      "type": "event"
    },
    {
      "anonymous": false,
      "inputs": [
        {
          "indexed": true,
          "internalType": "address",
          "name": "previousOwner",
          "type": "address"
        },
        {
          "indexed": true,
          "internalType": "address",
          "name": "newOwner",
          "type": "address"
        }
      ],
      "name": "OwnershipTransferred",
      "type": "event"
    },
    {
      "anonymous": false,
      "inputs": [
        {
          "indexed": false,
          "internalType": "address",
          "name": "wallet",
          "type": "address"
        }
      ],
      "name": "RegistrationFailure",
      "type": "event"
    },
    {
      "anonymous": false,
      "inputs": [
        {
          "indexed": false,
          "internalType": "address",
          "name": "wallet",
          "type": "address"
        }
      ],
      "name": "RegistrationSuccess",
      "type": "event"
    },
    {
      "anonymous": false,
      "inputs": [
        {
          "indexed": true,
          "internalType": "address",
          "name": "from",
          "type": "address"
        },
        {
          "indexed": true,
          "internalType": "address",
          "name": "to",
          "type": "address"
        },
        {
          "indexed": true,
          "internalType": "uint256",
          "name": "tokenId",
          "type": "uint256"
        }
      ],
      "name": "Transfer",
      "type": "event"
    },
    {
      "inputs": [
        {
          "internalType": "address",
          "name": "to",
          "type": "address"
        },
        {
          "internalType": "uint256",
          "name": "tokenId",
          "type": "uint256"
        }
      ],
      "name": "approve",
      "outputs": [],
      "stateMutability": "nonpayable",
      "type": "function"
    },
    {
      "inputs": [
        {
          "internalType": "address",
          "name": "user",
          "type": "address"
        },
        {
          "internalType": "uint8",
          "name": "tokenId",
          "type": "uint8"
        }
      ],
      "name": "awardNFT",
      "outputs": [
        {
          "internalType": "uint256",
          "name": "",
          "type": "uint256"
        }
      ],
      "stateMutability": "nonpayable",
      "type": "function"
    },
    {
      "inputs": [
        {
          "internalType": "address",
          "name": "owner",
          "type": "address"
        }
      ],
      "name": "balanceOf",
      "outputs": [
        {
          "internalType": "uint256",
          "name": "",
          "type": "uint256"
        }
      ],
      "stateMutability": "view",
      "type": "function"
    },
    {
      "inputs": [
        {
          "internalType": "uint256",
          "name": "tokenId",
          "type": "uint256"
        }
      ],
      "name": "getApproved",
      "outputs": [
        {
          "internalType": "address",
          "name": "",
          "type": "address"
        }
      ],
      "stateMutability": "view",
      "type": "function"
    },
    {
      "inputs": [],
      "name": "getUsers",
      "outputs": [
        {
          "internalType": "address[256]",
          "name": "",
          "type": "address[256]"
        }
      ],
      "stateMutability": "view",
      "type": "function"
    },
    {
      "inputs": [
        {
          "internalType": "address",
          "name": "owner",
          "type": "address"
        },
        {
          "internalType": "address",
          "name": "operator",
          "type": "address"
        }
      ],
      "name": "isApprovedForAll",
      "outputs": [
        {
          "internalType": "bool",
          "name": "",
          "type": "bool"
        }
      ],
      "stateMutability": "view",
      "type": "function"
    },
    {
      "inputs": [],
      "name": "name",
      "outputs": [
        {
          "internalType": "string",
          "name": "",
          "type": "string"
        }
      ],
      "stateMutability": "view",
      "type": "function"
    },
    {
      "inputs": [],
      "name": "owner",
      "outputs": [
        {
          "internalType": "address",
          "name": "",
          "type": "address"
        }
      ],
      "stateMutability": "view",
      "type": "function"
    },
    {
      "inputs": [
        {
          "internalType": "uint256",
          "name": "tokenId",
          "type": "uint256"
        }
      ],
      "name": "ownerOf",
      "outputs": [
        {
          "internalType": "address",
          "name": "",
          "type": "address"
        }
      ],
      "stateMutability": "view",
      "type": "function"
    },
    {
      "inputs": [
        {
          "internalType": "address",
          "name": "",
          "type": "address"
        }
      ],
      "name": "pendingRegistrations",
      "outputs": [
        {
          "internalType": "bool",
          "name": "",
          "type": "bool"
        }
      ],
      "stateMutability": "view",
      "type": "function"
    },
    {
      "inputs": [
        {
          "internalType": "address",
          "name": "",
          "type": "address"
        }
      ],
      "name": "productIdToWallet",
      "outputs": [
        {
          "internalType": "uint256",
          "name": "",
          "type": "uint256"
        }
      ],
      "stateMutability": "view",
      "type": "function"
    },
    {
      "inputs": [],
      "name": "renounceOwnership",
      "outputs": [],
      "stateMutability": "nonpayable",
      "type": "function"
    },
    {
      "inputs": [
        {
          "internalType": "address",
          "name": "from",
          "type": "address"
        },
        {
          "internalType": "address",
          "name": "to",
          "type": "address"
        },
        {
          "internalType": "uint256",
          "name": "tokenId",
          "type": "uint256"
        }
      ],
      "name": "safeTransferFrom",
      "outputs": [],
      "stateMutability": "nonpayable",
      "type": "function"
    },
    {
      "inputs": [
        {
          "internalType": "address",
          "name": "from",
          "type": "address"
        },
        {
          "internalType": "address",
          "name": "to",
          "type": "address"
        },
        {
          "internalType": "uint256",
          "name": "tokenId",
          "type": "uint256"
        },
        {
          "internalType": "bytes",
          "name": "data",
          "type": "bytes"
        }
      ],
      "name": "safeTransferFrom",
      "outputs": [],
      "stateMutability": "nonpayable",
      "type": "function"
    },
    {
      "inputs": [
        {
          "internalType": "address",
          "name": "operator",
          "type": "address"
        },
        {
          "internalType": "bool",
          "name": "approved",
          "type": "bool"
        }
      ],
      "name": "setApprovalForAll",
      "outputs": [],
      "stateMutability": "nonpayable",
      "type": "function"
    },
    {
      "inputs": [
        {
          "internalType": "bytes4",
          "name": "interfaceId",
          "type": "bytes4"
        }
      ],
      "name": "supportsInterface",
      "outputs": [
        {
          "internalType": "bool",
          "name": "",
          "type": "bool"
        }
      ],
      "stateMutability": "view",
      "type": "function"
    },
    {
      "inputs": [],
      "name": "symbol",
      "outputs": [
        {
          "internalType": "string",
          "name": "",
          "type": "string"
        }
      ],
      "stateMutability": "view",
      "type": "function"
    },
    {
      "inputs": [
        {
          "internalType": "uint256",
          "name": "tokenId",
          "type": "uint256"
        }
      ],
      "name": "tokenURI",
      "outputs": [
        {
          "internalType": "string",
          "name": "",
          "type": "string"
        }
      ],
      "stateMutability": "view",
      "type": "function"
    },
    {
      "inputs": [
        {
          "internalType": "address",
          "name": "from",
          "type": "address"
        },
        {
          "internalType": "address",
          "name": "to",
          "type": "address"
        },
        {
          "internalType": "uint256",
          "name": "tokenId",
          "type": "uint256"
        }
      ],
      "name": "transferFrom",
      "outputs": [],
      "stateMutability": "nonpayable",
      "type": "function"
    },
    {
      "inputs": [
        {
          "internalType": "address",
          "name": "newOwner",
          "type": "address"
        }
      ],
      "name": "transferOwnership",
      "outputs": [],
      "stateMutability": "nonpayable",
      "type": "function"
    }
  ],
  "bytecode": "0x60806040523480156200001157600080fd5b5060405162002b9e38038062002b9e833981810160405281019062000037919062000288565b806040518060400160405280601081526020017f4461746152657761726473546f6b656e000000000000000000000000000000008152506040518060400160405280600381526020017f44525400000000000000000000000000000000000000000000000000000000008152508160009081620000b5919062000534565b508060019081620000c7919062000534565b505050600073ffffffffffffffffffffffffffffffffffffffff168173ffffffffffffffffffffffffffffffffffffffff16036200013f5760006040517f1e4fbdf70000000000000000000000000000000000000000000000000000000081526004016200013691906200062c565b60405180910390fd5b62000150816200015860201b60201c565b505062000649565b6000600660009054906101000a900473ffffffffffffffffffffffffffffffffffffffff16905081600660006101000a81548173ffffffffffffffffffffffffffffffffffffffff021916908373ffffffffffffffffffffffffffffffffffffffff1602179055508173ffffffffffffffffffffffffffffffffffffffff168173ffffffffffffffffffffffffffffffffffffffff167f8be0079c531659141344cd1fd0a4f28419497f9722a3daafe3b4186f6b6457e060405160405180910390a35050565b600080fd5b600073ffffffffffffffffffffffffffffffffffffffff82169050919050565b6000620002508262000223565b9050919050565b620002628162000243565b81146200026e57600080fd5b50565b600081519050620002828162000257565b92915050565b600060208284031215620002a157620002a06200021e565b5b6000620002b18482850162000271565b91505092915050565b600081519050919050565b7f4e487b7100000000000000000000000000000000000000000000000000000000600052604160045260246000fd5b7f4e487b7100000000000000000000000000000000000000000000000000000000600052602260045260246000fd5b600060028204905060018216806200033c57607f821691505b602082108103620003525762000351620002f4565b5b50919050565b60008190508160005260206000209050919050565b60006020601f8301049050919050565b600082821b905092915050565b600060088302620003bc7fffffffffffffffffffffffffffffffffffffffffffffffffffffffffffffffff826200037d565b620003c886836200037d565b95508019841693508086168417925050509392505050565b6000819050919050565b6000819050919050565b6000620004156200040f6200040984620003e0565b620003ea565b620003e0565b9050919050565b6000819050919050565b6200043183620003f4565b6200044962000440826200041c565b8484546200038a565b825550505050565b600090565b6200046062000451565b6200046d81848462000426565b505050565b5b8181101562000495576200048960008262000456565b60018101905062000473565b5050565b601f821115620004e457620004ae8162000358565b620004b9846200036d565b81016020851015620004c9578190505b620004e1620004d8856200036d565b83018262000472565b50505b505050565b600082821c905092915050565b60006200050960001984600802620004e9565b1980831691505092915050565b6000620005248383620004f6565b9150826002028217905092915050565b6200053f82620002ba565b67ffffffffffffffff8111156200055b576200055a620002c5565b5b62000567825462000323565b6200057482828562000499565b600060209050601f831160018114620005ac576000841562000597578287015190505b620005a3858262000516565b86555062000613565b601f198416620005bc8662000358565b60005b82811015620005e657848901518255600182019150602085019450602081019050620005bf565b8683101562000606578489015162000602601f891682620004f6565b8355505b6001600288020188555050505b505050505050565b620006268162000243565b82525050565b60006020820190506200064360008301846200061b565b92915050565b61254580620006596000396000f3fe608060405234801561001057600080fd5b506004361061012b5760003560e01c8063715018a6116100ad578063b88d4fde11610071578063b88d4fde14610342578063c87b56dd1461035e578063cd4852e51461038e578063e985e9c5146103be578063f2fde38b146103ee5761012b565b8063715018a6146102b05780638da5cb5b146102ba57806395d89b41146102d8578063a22cb465146102f6578063ad1fbc19146103125761012b565b806323a36a54116100f457806323a36a54146101e857806323b872dd1461021857806342842e0e146102345780636352211e1461025057806370a08231146102805761012b565b8062ce8e3e1461013057806301ffc9a71461014e57806306fdde031461017e578063081812fc1461019c578063095ea7b3146101cc575b600080fd5b61013861040a565b6040516101459190611c24565b60405180910390f35b61016860048036038101906101639190611cac565b610495565b6040516101759190611cf4565b60405180910390f35b610186610577565b6040516101939190611d9f565b60405180910390f35b6101b660048036038101906101b19190611df7565b610609565b6040516101c39190611e33565b60405180910390f35b6101e660048036038101906101e19190611e7a565b610625565b005b61020260048036038101906101fd9190611ef3565b61063b565b60405161020f9190611f42565b60405180910390f35b610232600480360381019061022d9190611f5d565b6106f9565b005b61024e60048036038101906102499190611f5d565b6107fb565b005b61026a60048036038101906102659190611df7565b61081b565b6040516102779190611e33565b60405180910390f35b61029a60048036038101906102959190611fb0565b61082d565b6040516102a79190611f42565b60405180910390f35b6102b86108e7565b005b6102c26108fb565b6040516102cf9190611e33565b60405180910390f35b6102e0610925565b6040516102ed9190611d9f565b60405180910390f35b610310600480360381019061030b9190612009565b6109b7565b005b61032c60048036038101906103279190611fb0565b6109cd565b6040516103399190611f42565b60405180910390f35b61035c6004803603810190610357919061217e565b6109e5565b005b61037860048036038101906103739190611df7565b610a02565b6040516103859190611d9f565b60405180910390f35b6103a860048036038101906103a39190611fb0565b610a6b565b6040516103b59190611cf4565b60405180910390f35b6103d860048036038101906103d39190612201565b610a8b565b6040516103e59190611cf4565b60405180910390f35b61040860048036038101906104039190611fb0565b610b1f565b005b610412611b18565b61041a610ba5565b6009610100806020026040519081016040528092919082610100801561048b576020028201915b8160009054906101000a900473ffffffffffffffffffffffffffffffffffffffff1673ffffffffffffffffffffffffffffffffffffffff1681526020019060010190808311610441575b5050505050905090565b60007f80ac58cd000000000000000000000000000000000000000000000000000000007bffffffffffffffffffffffffffffffffffffffffffffffffffffffff1916827bffffffffffffffffffffffffffffffffffffffffffffffffffffffff1916148061056057507f5b5e139f000000000000000000000000000000000000000000000000000000007bffffffffffffffffffffffffffffffffffffffffffffffffffffffff1916827bffffffffffffffffffffffffffffffffffffffffffffffffffffffff1916145b80610570575061056f82610c2c565b5b9050919050565b60606000805461058690612270565b80601f01602080910402602001604051908101604052809291908181526020018280546105b290612270565b80156105ff5780601f106105d4576101008083540402835291602001916105ff565b820191906000526020600020905b8154815290600101906020018083116105e257829003601f168201915b5050505050905090565b600061061482610c96565b5061061e82610d1e565b9050919050565b6106378282610632610d5b565b610d63565b5050565b6000610645610ba5565b6106886040518060400160405280601781526020017f4d696e74696e6720746f6b656e20257320666f722025730000000000000000008152508360ff1685610d75565b610695838360ff16610e14565b8260098360ff1661010081106106ae576106ad6122a1565b5b0160006101000a81548173ffffffffffffffffffffffffffffffffffffffff021916908373ffffffffffffffffffffffffffffffffffffffff1602179055508160ff16905092915050565b600073ffffffffffffffffffffffffffffffffffffffff168273ffffffffffffffffffffffffffffffffffffffff160361076b5760006040517f64a0ae920000000000000000000000000000000000000000000000000000000081526004016107629190611e33565b60405180910390fd5b600061077f838361077a610d5b565b610f0d565b90508373ffffffffffffffffffffffffffffffffffffffff168173ffffffffffffffffffffffffffffffffffffffff16146107f5578382826040517f64283d7b0000000000000000000000000000000000000000000000000000000081526004016107ec939291906122d0565b60405180910390fd5b50505050565b610816838383604051806020016040528060008152506109e5565b505050565b600061082682610c96565b9050919050565b60008073ffffffffffffffffffffffffffffffffffffffff168273ffffffffffffffffffffffffffffffffffffffff16036108a05760006040517f89c62b640000000000000000000000000000000000000000000000000000000081526004016108979190611e33565b60405180910390fd5b600360008373ffffffffffffffffffffffffffffffffffffffff1673ffffffffffffffffffffffffffffffffffffffff168152602001908152602001600020549050919050565b6108ef610ba5565b6108f96000611127565b565b6000600660009054906101000a900473ffffffffffffffffffffffffffffffffffffffff16905090565b60606001805461093490612270565b80601f016020809104026020016040519081016040528092919081815260200182805461096090612270565b80156109ad5780601f10610982576101008083540402835291602001916109ad565b820191906000526020600020905b81548152906001019060200180831161099057829003601f168201915b5050505050905090565b6109c96109c2610d5b565b83836111ed565b5050565b60076020528060005260406000206000915090505481565b6109f08484846106f9565b6109fc8484848461135c565b50505050565b6060610a0d82610c96565b506000610a18611513565b90506000815111610a385760405180602001604052806000815250610a63565b80610a428461152a565b604051602001610a53929190612343565b6040516020818303038152906040525b915050919050565b60086020528060005260406000206000915054906101000a900460ff1681565b6000600560008473ffffffffffffffffffffffffffffffffffffffff1673ffffffffffffffffffffffffffffffffffffffff16815260200190815260200160002060008373ffffffffffffffffffffffffffffffffffffffff1673ffffffffffffffffffffffffffffffffffffffff16815260200190815260200160002060009054906101000a900460ff16905092915050565b610b27610ba5565b600073ffffffffffffffffffffffffffffffffffffffff168173ffffffffffffffffffffffffffffffffffffffff1603610b995760006040517f1e4fbdf7000000000000000000000000000000000000000000000000000000008152600401610b909190611e33565b60405180910390fd5b610ba281611127565b50565b610bad610d5b565b73ffffffffffffffffffffffffffffffffffffffff16610bcb6108fb565b73ffffffffffffffffffffffffffffffffffffffff1614610c2a57610bee610d5b565b6040517f118cdaa7000000000000000000000000000000000000000000000000000000008152600401610c219190611e33565b60405180910390fd5b565b60007f01ffc9a7000000000000000000000000000000000000000000000000000000007bffffffffffffffffffffffffffffffffffffffffffffffffffffffff1916827bffffffffffffffffffffffffffffffffffffffffffffffffffffffff1916149050919050565b600080610ca2836115f8565b9050600073ffffffffffffffffffffffffffffffffffffffff168173ffffffffffffffffffffffffffffffffffffffff1603610d1557826040517f7e273289000000000000000000000000000000000000000000000000000000008152600401610d0c9190611f42565b60405180910390fd5b80915050919050565b60006004600083815260200190815260200160002060009054906101000a900473ffffffffffffffffffffffffffffffffffffffff169050919050565b600033905090565b610d708383836001611635565b505050565b610e0f838383604051602401610d8d93929190612367565b6040516020818303038152906040527f1c7ec448000000000000000000000000000000000000000000000000000000007bffffffffffffffffffffffffffffffffffffffffffffffffffffffff19166020820180517bffffffffffffffffffffffffffffffffffffffffffffffffffffffff83818316178352505050506117fa565b505050565b600073ffffffffffffffffffffffffffffffffffffffff168273ffffffffffffffffffffffffffffffffffffffff1603610e865760006040517f64a0ae92000000000000000000000000000000000000000000000000000000008152600401610e7d9190611e33565b60405180910390fd5b6000610e9483836000610f0d565b9050600073ffffffffffffffffffffffffffffffffffffffff168173ffffffffffffffffffffffffffffffffffffffff1614610f085760006040517f73c6ac6e000000000000000000000000000000000000000000000000000000008152600401610eff9190611e33565b60405180910390fd5b505050565b600080610f19846115f8565b9050600073ffffffffffffffffffffffffffffffffffffffff168373ffffffffffffffffffffffffffffffffffffffff1614610f5b57610f5a818486611814565b5b600073ffffffffffffffffffffffffffffffffffffffff168173ffffffffffffffffffffffffffffffffffffffff1614610fec57610f9d600085600080611635565b6001600360008373ffffffffffffffffffffffffffffffffffffffff1673ffffffffffffffffffffffffffffffffffffffff168152602001908152602001600020600082825403925050819055505b600073ffffffffffffffffffffffffffffffffffffffff168573ffffffffffffffffffffffffffffffffffffffff161461106f576001600360008773ffffffffffffffffffffffffffffffffffffffff1673ffffffffffffffffffffffffffffffffffffffff168152602001908152602001600020600082825401925050819055505b846002600086815260200190815260200160002060006101000a81548173ffffffffffffffffffffffffffffffffffffffff021916908373ffffffffffffffffffffffffffffffffffffffff160217905550838573ffffffffffffffffffffffffffffffffffffffff168273ffffffffffffffffffffffffffffffffffffffff167fddf252ad1be2c89b69c2b068fc378daa952ba7f163c4a11628f55a4df523b3ef60405160405180910390a4809150509392505050565b6000600660009054906101000a900473ffffffffffffffffffffffffffffffffffffffff16905081600660006101000a81548173ffffffffffffffffffffffffffffffffffffffff021916908373ffffffffffffffffffffffffffffffffffffffff1602179055508173ffffffffffffffffffffffffffffffffffffffff168173ffffffffffffffffffffffffffffffffffffffff167f8be0079c531659141344cd1fd0a4f28419497f9722a3daafe3b4186f6b6457e060405160405180910390a35050565b600073ffffffffffffffffffffffffffffffffffffffff168273ffffffffffffffffffffffffffffffffffffffff160361125e57816040517f5b08ba180000000000000000000000000000000000000000000000000000000081526004016112559190611e33565b60405180910390fd5b80600560008573ffffffffffffffffffffffffffffffffffffffff1673ffffffffffffffffffffffffffffffffffffffff16815260200190815260200160002060008473ffffffffffffffffffffffffffffffffffffffff1673ffffffffffffffffffffffffffffffffffffffff16815260200190815260200160002060006101000a81548160ff0219169083151502179055508173ffffffffffffffffffffffffffffffffffffffff168373ffffffffffffffffffffffffffffffffffffffff167f17307eab39ab6107e8899845ad3d59bd9653f200f220920489ca2b5937696c318360405161134f9190611cf4565b60405180910390a3505050565b60008373ffffffffffffffffffffffffffffffffffffffff163b111561150d578273ffffffffffffffffffffffffffffffffffffffff1663150b7a026113a0610d5b565b8685856040518563ffffffff1660e01b81526004016113c294939291906123fa565b6020604051808303816000875af19250505080156113fe57506040513d601f19601f820116820180604052508101906113fb919061245b565b60015b611482573d806000811461142e576040519150601f19603f3d011682016040523d82523d6000602084013e611433565b606091505b50600081510361147a57836040517f64a0ae920000000000000000000000000000000000000000000000000000000081526004016114719190611e33565b60405180910390fd5b805181602001fd5b63150b7a0260e01b7bffffffffffffffffffffffffffffffffffffffffffffffffffffffff1916817bffffffffffffffffffffffffffffffffffffffffffffffffffffffff19161461150b57836040517f64a0ae920000000000000000000000000000000000000000000000000000000081526004016115029190611e33565b60405180910390fd5b505b50505050565b606060405180602001604052806000815250905090565b606060006001611539846118d8565b01905060008167ffffffffffffffff81111561155857611557612053565b5b6040519080825280601f01601f19166020018201604052801561158a5781602001600182028036833780820191505090505b509050600082602001820190505b6001156115ed578080600190039150507f3031323334353637383961626364656600000000000000000000000000000000600a86061a8153600a85816115e1576115e0612488565b5b04945060008503611598575b819350505050919050565b60006002600083815260200190815260200160002060009054906101000a900473ffffffffffffffffffffffffffffffffffffffff169050919050565b808061166e5750600073ffffffffffffffffffffffffffffffffffffffff168273ffffffffffffffffffffffffffffffffffffffff1614155b156117a257600061167e84610c96565b9050600073ffffffffffffffffffffffffffffffffffffffff168373ffffffffffffffffffffffffffffffffffffffff16141580156116e957508273ffffffffffffffffffffffffffffffffffffffff168173ffffffffffffffffffffffffffffffffffffffff1614155b80156116fc57506116fa8184610a8b565b155b1561173e57826040517fa9fbf51f0000000000000000000000000000000000000000000000000000000081526004016117359190611e33565b60405180910390fd5b81156117a057838573ffffffffffffffffffffffffffffffffffffffff168273ffffffffffffffffffffffffffffffffffffffff167f8c5be1e5ebec7d5bd14f71427d1e84f3dd0314c0f7b2291e5b200ac8c7c3b92560405160405180910390a45b505b836004600085815260200190815260200160002060006101000a81548173ffffffffffffffffffffffffffffffffffffffff021916908373ffffffffffffffffffffffffffffffffffffffff16021790555050505050565b61181181611809611a2b611a4c565b63ffffffff16565b50565b61181f838383611a57565b6118d357600073ffffffffffffffffffffffffffffffffffffffff168373ffffffffffffffffffffffffffffffffffffffff160361189457806040517f7e27328900000000000000000000000000000000000000000000000000000000815260040161188b9190611f42565b60405180910390fd5b81816040517f177e802f0000000000000000000000000000000000000000000000000000000081526004016118ca9291906124b7565b60405180910390fd5b505050565b600080600090507a184f03e93ff9f4daa797ed6e38ed64bf6a1f0100000000000000008310611936577a184f03e93ff9f4daa797ed6e38ed64bf6a1f010000000000000000838161192c5761192b612488565b5b0492506040810190505b6d04ee2d6d415b85acef81000000008310611973576d04ee2d6d415b85acef8100000000838161196957611968612488565b5b0492506020810190505b662386f26fc1000083106119a257662386f26fc10000838161199857611997612488565b5b0492506010810190505b6305f5e10083106119cb576305f5e10083816119c1576119c0612488565b5b0492506008810190505b61271083106119f05761271083816119e6576119e5612488565b5b0492506004810190505b60648310611a135760648381611a0957611a08612488565b5b0492506002810190505b600a8310611a22576001810190505b80915050919050565b60006a636f6e736f6c652e6c6f679050600080835160208501845afa505050565b611b3c819050919050565b60008073ffffffffffffffffffffffffffffffffffffffff168373ffffffffffffffffffffffffffffffffffffffff1614158015611b0f57508273ffffffffffffffffffffffffffffffffffffffff168473ffffffffffffffffffffffffffffffffffffffff161480611ad05750611acf8484610a8b565b5b80611b0e57508273ffffffffffffffffffffffffffffffffffffffff16611af683610d1e565b73ffffffffffffffffffffffffffffffffffffffff16145b5b90509392505050565b60405180612000016040528061010090602082028036833780820191505090505090565b611b446124e0565b565b60006101009050919050565b600081905092915050565b6000819050919050565b600073ffffffffffffffffffffffffffffffffffffffff82169050919050565b6000611b9282611b67565b9050919050565b611ba281611b87565b82525050565b6000611bb48383611b99565b60208301905092915050565b6000602082019050919050565b611bd681611b46565b611be08184611b52565b9250611beb82611b5d565b8060005b83811015611c1c578151611c038782611ba8565b9650611c0e83611bc0565b925050600181019050611bef565b505050505050565b600061200082019050611c3a6000830184611bcd565b92915050565b6000604051905090565b600080fd5b600080fd5b60007fffffffff0000000000000000000000000000000000000000000000000000000082169050919050565b611c8981611c54565b8114611c9457600080fd5b50565b600081359050611ca681611c80565b92915050565b600060208284031215611cc257611cc1611c4a565b5b6000611cd084828501611c97565b91505092915050565b60008115159050919050565b611cee81611cd9565b82525050565b6000602082019050611d096000830184611ce5565b92915050565b600081519050919050565b600082825260208201905092915050565b60005b83811015611d49578082015181840152602081019050611d2e565b60008484015250505050565b6000601f19601f8301169050919050565b6000611d7182611d0f565b611d7b8185611d1a565b9350611d8b818560208601611d2b565b611d9481611d55565b840191505092915050565b60006020820190508181036000830152611db98184611d66565b905092915050565b6000819050919050565b611dd481611dc1565b8114611ddf57600080fd5b50565b600081359050611df181611dcb565b92915050565b600060208284031215611e0d57611e0c611c4a565b5b6000611e1b84828501611de2565b91505092915050565b611e2d81611b87565b82525050565b6000602082019050611e486000830184611e24565b92915050565b611e5781611b87565b8114611e6257600080fd5b50565b600081359050611e7481611e4e565b92915050565b60008060408385031215611e9157611e90611c4a565b5b6000611e9f85828601611e65565b9250506020611eb085828601611de2565b9150509250929050565b600060ff82169050919050565b611ed081611eba565b8114611edb57600080fd5b50565b600081359050611eed81611ec7565b92915050565b60008060408385031215611f0a57611f09611c4a565b5b6000611f1885828601611e65565b9250506020611f2985828601611ede565b9150509250929050565b611f3c81611dc1565b82525050565b6000602082019050611f576000830184611f33565b92915050565b600080600060608486031215611f7657611f75611c4a565b5b6000611f8486828701611e65565b9350506020611f9586828701611e65565b9250506040611fa686828701611de2565b9150509250925092565b600060208284031215611fc657611fc5611c4a565b5b6000611fd484828501611e65565b91505092915050565b611fe681611cd9565b8114611ff157600080fd5b50565b60008135905061200381611fdd565b92915050565b600080604083850312156120205761201f611c4a565b5b600061202e85828601611e65565b925050602061203f85828601611ff4565b9150509250929050565b600080fd5b600080fd5b7f4e487b7100000000000000000000000000000000000000000000000000000000600052604160045260246000fd5b61208b82611d55565b810181811067ffffffffffffffff821117156120aa576120a9612053565b5b80604052505050565b60006120bd611c40565b90506120c98282612082565b919050565b600067ffffffffffffffff8211156120e9576120e8612053565b5b6120f282611d55565b9050602081019050919050565b82818337600083830152505050565b600061212161211c846120ce565b6120b3565b90508281526020810184848401111561213d5761213c61204e565b5b6121488482856120ff565b509392505050565b600082601f83011261216557612164612049565b5b813561217584826020860161210e565b91505092915050565b6000806000806080858703121561219857612197611c4a565b5b60006121a687828801611e65565b94505060206121b787828801611e65565b93505060406121c887828801611de2565b925050606085013567ffffffffffffffff8111156121e9576121e8611c4f565b5b6121f587828801612150565b91505092959194509250565b6000806040838503121561221857612217611c4a565b5b600061222685828601611e65565b925050602061223785828601611e65565b9150509250929050565b7f4e487b7100000000000000000000000000000000000000000000000000000000600052602260045260246000fd5b6000600282049050600182168061228857607f821691505b60208210810361229b5761229a612241565b5b50919050565b7f4e487b7100000000000000000000000000000000000000000000000000000000600052603260045260246000fd5b60006060820190506122e56000830186611e24565b6122f26020830185611f33565b6122ff6040830184611e24565b949350505050565b600081905092915050565b600061231d82611d0f565b6123278185612307565b9350612337818560208601611d2b565b80840191505092915050565b600061234f8285612312565b915061235b8284612312565b91508190509392505050565b600060608201905081810360008301526123818186611d66565b90506123906020830185611f33565b61239d6040830184611e24565b949350505050565b600081519050919050565b600082825260208201905092915050565b60006123cc826123a5565b6123d681856123b0565b93506123e6818560208601611d2b565b6123ef81611d55565b840191505092915050565b600060808201905061240f6000830187611e24565b61241c6020830186611e24565b6124296040830185611f33565b818103606083015261243b81846123c1565b905095945050505050565b60008151905061245581611c80565b92915050565b60006020828403121561247157612470611c4a565b5b600061247f84828501612446565b91505092915050565b7f4e487b7100000000000000000000000000000000000000000000000000000000600052601260045260246000fd5b60006040820190506124cc6000830185611e24565b6124d96020830184611f33565b9392505050565b7f4e487b7100000000000000000000000000000000000000000000000000000000600052605160045260246000fdfea26469706673582212202b0207032cf0a11cbcd8ab9a305cde3a9bf43b6f1b49f83676085d046a783a3264736f6c63430008140033",
  "linkReferences": {},
  "deployedLinkReferences": {}
}