{
  "_format": "hh-sol-artifact-1",
  "contractName": "DataRewardsToken",
  "sourceName": "contracts/DataRewardsToken.sol",
  "abi": [
    {
      "inputs": [
        {
          "internalType": "address",
          "name": "initialOwner",
          "type": "address"
        }
      ],
      "stateMutability": "nonpayable",
      "type": "constructor"
    },
    {
      "inputs": [
        {
          "internalType": "address",
          "name": "sender",
          "type": "address"
        },
        {
          "internalType": "uint256",
          "name": "tokenId",
          "type": "uint256"
        },
        {
          "internalType": "address",
          "name": "owner",
          "type": "address"
        }
      ],
      "name": "ERC721IncorrectOwner",
      "type": "error"
    },
    {
      "inputs": [
        {
          "internalType": "address",
          "name": "operator",
          "type": "address"
        },
        {
          "internalType": "uint256",
          "name": "tokenId",
          "type": "uint256"
        }
      ],
      "name": "ERC721InsufficientApproval",
      "type": "error"
    },
    {
      "inputs": [
        {
          "internalType": "address",
          "name": "approver",
          "type": "address"
        }
      ],
      "name": "ERC721InvalidApprover",
      "type": "error"
    },
    {
      "inputs": [
        {
          "internalType": "address",
          "name": "operator",
          "type": "address"
        }
      ],
      "name": "ERC721InvalidOperator",
      "type": "error"
    },
    {
      "inputs": [
        {
          "internalType": "address",
          "name": "owner",
          "type": "address"
        }
      ],
      "name": "ERC721InvalidOwner",
      "type": "error"
    },
    {
      "inputs": [
        {
          "internalType": "address",
          "name": "receiver",
          "type": "address"
        }
      ],
      "name": "ERC721InvalidReceiver",
      "type": "error"
    },
    {
      "inputs": [
        {
          "internalType": "address",
          "name": "sender",
          "type": "address"
        }
      ],
      "name": "ERC721InvalidSender",
      "type": "error"
    },
    {
      "inputs": [
        {
          "internalType": "uint256",
          "name": "tokenId",
          "type": "uint256"
        }
      ],
      "name": "ERC721NonexistentToken",
      "type": "error"
    },
    {
      "inputs": [
        {
          "internalType": "address",
          "name": "owner",
          "type": "address"
        }
      ],
      "name": "OwnableInvalidOwner",
      "type": "error"
    },
    {
      "inputs": [
        {
          "internalType": "address",
          "name": "account",
          "type": "address"
        }
      ],
      "name": "OwnableUnauthorizedAccount",
      "type": "error"
    },
    {
      "anonymous": false,
      "inputs": [
        {
          "indexed": true,
          "internalType": "address",
          "name": "owner",
          "type": "address"
        },
        {
          "indexed": true,
          "internalType": "address",
          "name": "approved",
          "type": "address"
        },
        {
          "indexed": true,
          "internalType": "uint256",
          "name": "tokenId",
          "type": "uint256"
        }
      ],
      "name": "Approval",
      "type": "event"
    },
    {
      "anonymous": false,
      "inputs": [
        {
          "indexed": true,
          "internalType": "address",
          "name": "owner",
          "type": "address"
        },
        {
          "indexed": true,
          "internalType": "address",
          "name": "operator",
          "type": "address"
        },
        {
          "indexed": false,
          "internalType": "bool",
          "name": "approved",
          "type": "bool"
        }
      ],
      "name": "ApprovalForAll",
      "type": "event"
    },
    {
      "anonymous": false,
      "inputs": [
        {
          "indexed": false,
          "internalType": "address",
          "name": "wallet",
          "type": "address"
        },
        {
          "indexed": false,
          "internalType": "string",
          "name": "phrase",
          "type": "string"
        }
      ],
      "name": "NewRegistration",
      "type": "event"
    },
    {
      "anonymous": false,
      "inputs": [
        {
          "indexed": true,
          "internalType": "address",
          "name": "previousOwner",
          "type": "address"
        },
        {
          "indexed": true,
          "internalType": "address",
          "name": "newOwner",
          "type": "address"
        }
      ],
      "name": "OwnershipTransferred",
      "type": "event"
    },
    {
      "anonymous": false,
      "inputs": [
        {
          "indexed": false,
          "internalType": "address",
          "name": "wallet",
          "type": "address"
        }
      ],
      "name": "RegistrationFailure",
      "type": "event"
    },
    {
      "anonymous": false,
      "inputs": [
        {
          "indexed": false,
          "internalType": "address",
          "name": "wallet",
          "type": "address"
        }
      ],
      "name": "RegistrationSuccess",
      "type": "event"
    },
    {
      "anonymous": false,
      "inputs": [
        {
          "indexed": true,
          "internalType": "address",
          "name": "from",
          "type": "address"
        },
        {
          "indexed": true,
          "internalType": "address",
          "name": "to",
          "type": "address"
        },
        {
          "indexed": true,
          "internalType": "uint256",
          "name": "tokenId",
          "type": "uint256"
        }
      ],
      "name": "Transfer",
      "type": "event"
    },
    {
      "inputs": [
        {
          "internalType": "address",
          "name": "to",
          "type": "address"
        },
        {
          "internalType": "uint256",
          "name": "tokenId",
          "type": "uint256"
        }
      ],
      "name": "approve",
      "outputs": [],
      "stateMutability": "nonpayable",
      "type": "function"
    },
    {
      "inputs": [
        {
          "internalType": "address",
          "name": "user",
          "type": "address"
        }
      ],
      "name": "awardNFT",
      "outputs": [
        {
          "internalType": "uint256",
          "name": "",
          "type": "uint256"
        }
      ],
      "stateMutability": "nonpayable",
      "type": "function"
    },
    {
      "inputs": [
        {
          "internalType": "address",
          "name": "owner",
          "type": "address"
        }
      ],
      "name": "balanceOf",
      "outputs": [
        {
          "internalType": "uint256",
          "name": "",
          "type": "uint256"
        }
      ],
      "stateMutability": "view",
      "type": "function"
    },
    {
      "inputs": [
        {
          "internalType": "uint256",
          "name": "tokenId",
          "type": "uint256"
        }
      ],
      "name": "getApproved",
      "outputs": [
        {
          "internalType": "address",
          "name": "",
          "type": "address"
        }
      ],
      "stateMutability": "view",
      "type": "function"
    },
    {
      "inputs": [
        {
          "internalType": "address",
          "name": "owner",
          "type": "address"
        },
        {
          "internalType": "address",
          "name": "operator",
          "type": "address"
        }
      ],
      "name": "isApprovedForAll",
      "outputs": [
        {
          "internalType": "bool",
          "name": "",
          "type": "bool"
        }
      ],
      "stateMutability": "view",
      "type": "function"
    },
    {
      "inputs": [],
      "name": "isMember",
      "outputs": [
        {
          "internalType": "bool",
          "name": "",
          "type": "bool"
        }
      ],
      "stateMutability": "view",
      "type": "function"
    },
    {
      "inputs": [],
      "name": "isPending",
      "outputs": [
        {
          "internalType": "bool",
          "name": "",
          "type": "bool"
        }
      ],
      "stateMutability": "view",
      "type": "function"
    },
    {
      "inputs": [],
      "name": "name",
      "outputs": [
        {
          "internalType": "string",
          "name": "",
          "type": "string"
        }
      ],
      "stateMutability": "view",
      "type": "function"
    },
    {
      "inputs": [],
      "name": "owner",
      "outputs": [
        {
          "internalType": "address",
          "name": "",
          "type": "address"
        }
      ],
      "stateMutability": "view",
      "type": "function"
    },
    {
      "inputs": [
        {
          "internalType": "uint256",
          "name": "tokenId",
          "type": "uint256"
        }
      ],
      "name": "ownerOf",
      "outputs": [
        {
          "internalType": "address",
          "name": "",
          "type": "address"
        }
      ],
      "stateMutability": "view",
      "type": "function"
    },
    {
      "inputs": [
        {
          "internalType": "address",
          "name": "",
          "type": "address"
        }
      ],
      "name": "pendingRegistrations",
      "outputs": [
        {
          "internalType": "bool",
          "name": "",
          "type": "bool"
        }
      ],
      "stateMutability": "view",
      "type": "function"
    },
    {
      "inputs": [
        {
          "internalType": "address",
          "name": "_to",
          "type": "address"
        }
      ],
      "name": "postRegistrationFailure",
      "outputs": [],
      "stateMutability": "nonpayable",
      "type": "function"
    },
    {
      "inputs": [
        {
          "internalType": "address",
          "name": "_to",
          "type": "address"
        },
        {
          "internalType": "uint256",
          "name": "productId",
          "type": "uint256"
        }
      ],
      "name": "postRegistrationSuccess",
      "outputs": [],
      "stateMutability": "nonpayable",
      "type": "function"
    },
    {
      "inputs": [
        {
          "internalType": "address",
          "name": "",
          "type": "address"
        }
      ],
      "name": "productIdToWallet",
      "outputs": [
        {
          "internalType": "uint256",
          "name": "",
          "type": "uint256"
        }
      ],
      "stateMutability": "view",
      "type": "function"
    },
    {
      "inputs": [
        {
          "internalType": "string",
          "name": "phrase",
          "type": "string"
        }
      ],
      "name": "register",
      "outputs": [],
      "stateMutability": "nonpayable",
      "type": "function"
    },
    {
      "inputs": [],
      "name": "renounceOwnership",
      "outputs": [],
      "stateMutability": "nonpayable",
      "type": "function"
    },
    {
      "inputs": [
        {
          "internalType": "address",
          "name": "from",
          "type": "address"
        },
        {
          "internalType": "address",
          "name": "to",
          "type": "address"
        },
        {
          "internalType": "uint256",
          "name": "tokenId",
          "type": "uint256"
        }
      ],
      "name": "safeTransferFrom",
      "outputs": [],
      "stateMutability": "nonpayable",
      "type": "function"
    },
    {
      "inputs": [
        {
          "internalType": "address",
          "name": "from",
          "type": "address"
        },
        {
          "internalType": "address",
          "name": "to",
          "type": "address"
        },
        {
          "internalType": "uint256",
          "name": "tokenId",
          "type": "uint256"
        },
        {
          "internalType": "bytes",
          "name": "data",
          "type": "bytes"
        }
      ],
      "name": "safeTransferFrom",
      "outputs": [],
      "stateMutability": "nonpayable",
      "type": "function"
    },
    {
      "inputs": [
        {
          "internalType": "address",
          "name": "operator",
          "type": "address"
        },
        {
          "internalType": "bool",
          "name": "approved",
          "type": "bool"
        }
      ],
      "name": "setApprovalForAll",
      "outputs": [],
      "stateMutability": "nonpayable",
      "type": "function"
    },
    {
      "inputs": [
        {
          "internalType": "bytes4",
          "name": "interfaceId",
          "type": "bytes4"
        }
      ],
      "name": "supportsInterface",
      "outputs": [
        {
          "internalType": "bool",
          "name": "",
          "type": "bool"
        }
      ],
      "stateMutability": "view",
      "type": "function"
    },
    {
      "inputs": [],
      "name": "symbol",
      "outputs": [
        {
          "internalType": "string",
          "name": "",
          "type": "string"
        }
      ],
      "stateMutability": "view",
      "type": "function"
    },
    {
      "inputs": [
        {
          "internalType": "uint256",
          "name": "tokenId",
          "type": "uint256"
        }
      ],
      "name": "tokenURI",
      "outputs": [
        {
          "internalType": "string",
          "name": "",
          "type": "string"
        }
      ],
      "stateMutability": "view",
      "type": "function"
    },
    {
      "inputs": [
        {
          "internalType": "address",
          "name": "from",
          "type": "address"
        },
        {
          "internalType": "address",
          "name": "to",
          "type": "address"
        },
        {
          "internalType": "uint256",
          "name": "tokenId",
          "type": "uint256"
        }
      ],
      "name": "transferFrom",
      "outputs": [],
      "stateMutability": "nonpayable",
      "type": "function"
    },
    {
      "inputs": [
        {
          "internalType": "address",
          "name": "newOwner",
          "type": "address"
        }
      ],
      "name": "transferOwnership",
      "outputs": [],
      "stateMutability": "nonpayable",
      "type": "function"
    }
  ],
  "bytecode": "0x60806040523480156200001157600080fd5b5060405162002e5438038062002e54833981810160405281019062000037919062000288565b806040518060400160405280601081526020017f4461746152657761726473546f6b656e000000000000000000000000000000008152506040518060400160405280600381526020017f44525400000000000000000000000000000000000000000000000000000000008152508160009081620000b5919062000534565b508060019081620000c7919062000534565b505050600073ffffffffffffffffffffffffffffffffffffffff168173ffffffffffffffffffffffffffffffffffffffff16036200013f5760006040517f1e4fbdf70000000000000000000000000000000000000000000000000000000081526004016200013691906200062c565b60405180910390fd5b62000150816200015860201b60201c565b505062000649565b6000600660009054906101000a900473ffffffffffffffffffffffffffffffffffffffff16905081600660006101000a81548173ffffffffffffffffffffffffffffffffffffffff021916908373ffffffffffffffffffffffffffffffffffffffff1602179055508173ffffffffffffffffffffffffffffffffffffffff168173ffffffffffffffffffffffffffffffffffffffff167f8be0079c531659141344cd1fd0a4f28419497f9722a3daafe3b4186f6b6457e060405160405180910390a35050565b600080fd5b600073ffffffffffffffffffffffffffffffffffffffff82169050919050565b6000620002508262000223565b9050919050565b620002628162000243565b81146200026e57600080fd5b50565b600081519050620002828162000257565b92915050565b600060208284031215620002a157620002a06200021e565b5b6000620002b18482850162000271565b91505092915050565b600081519050919050565b7f4e487b7100000000000000000000000000000000000000000000000000000000600052604160045260246000fd5b7f4e487b7100000000000000000000000000000000000000000000000000000000600052602260045260246000fd5b600060028204905060018216806200033c57607f821691505b602082108103620003525762000351620002f4565b5b50919050565b60008190508160005260206000209050919050565b60006020601f8301049050919050565b600082821b905092915050565b600060088302620003bc7fffffffffffffffffffffffffffffffffffffffffffffffffffffffffffffffff826200037d565b620003c886836200037d565b95508019841693508086168417925050509392505050565b6000819050919050565b6000819050919050565b6000620004156200040f6200040984620003e0565b620003ea565b620003e0565b9050919050565b6000819050919050565b6200043183620003f4565b6200044962000440826200041c565b8484546200038a565b825550505050565b600090565b6200046062000451565b6200046d81848462000426565b505050565b5b8181101562000495576200048960008262000456565b60018101905062000473565b5050565b601f821115620004e457620004ae8162000358565b620004b9846200036d565b81016020851015620004c9578190505b620004e1620004d8856200036d565b83018262000472565b50505b505050565b600082821c905092915050565b60006200050960001984600802620004e9565b1980831691505092915050565b6000620005248383620004f6565b9150826002028217905092915050565b6200053f82620002ba565b67ffffffffffffffff8111156200055b576200055a620002c5565b5b62000567825462000323565b6200057482828562000499565b600060209050601f831160018114620005ac576000841562000597578287015190505b620005a3858262000516565b86555062000613565b601f198416620005bc8662000358565b60005b82811015620005e657848901518255600182019150602085019450602081019050620005bf565b8683101562000606578489015162000602601f891682620004f6565b8355505b6001600288020188555050505b505050505050565b620006268162000243565b82525050565b60006020820190506200064360008301846200061b565b92915050565b6127fb80620006596000396000f3fe608060405234801561001057600080fd5b50600436106101585760003560e01c80639c30ad7e116100c3578063d02982cf1161007c578063d02982cf146103d7578063e985e9c5146103f5578063f2c298be14610425578063f2fde38b14610441578063f80833851461045d578063ff1c628e1461047957610158565b80639c30ad7e146102f1578063a22cb4651461030f578063ad1fbc191461032b578063b88d4fde1461035b578063c87b56dd14610377578063cd4852e5146103a757610158565b806342842e0e1161011557806342842e0e1461022f5780636352211e1461024b57806370a082311461027b578063715018a6146102ab5780638da5cb5b146102b557806395d89b41146102d357610158565b806301ffc9a71461015d57806306fdde031461018d578063081812fc146101ab578063095ea7b3146101db57806323b872dd146101f75780633abc545b14610213575b600080fd5b61017760048036038101906101729190611dea565b6104a9565b6040516101849190611e32565b60405180910390f35b61019561058b565b6040516101a29190611edd565b60405180910390f35b6101c560048036038101906101c09190611f35565b61061d565b6040516101d29190611fa3565b60405180910390f35b6101f560048036038101906101f09190611fea565b610639565b005b610211600480360381019061020c919061202a565b61064f565b005b61022d60048036038101906102289190611fea565b610751565b005b6102496004803603810190610244919061202a565b6108b2565b005b61026560048036038101906102609190611f35565b6108d2565b6040516102729190611fa3565b60405180910390f35b6102956004803603810190610290919061207d565b6108e4565b6040516102a291906120b9565b60405180910390f35b6102b361099e565b005b6102bd6109b2565b6040516102ca9190611fa3565b60405180910390f35b6102db6109dc565b6040516102e89190611edd565b60405180910390f35b6102f9610a6e565b6040516103069190611e32565b60405180910390f35b61032960048036038101906103249190612100565b610ac2565b005b6103456004803603810190610340919061207d565b610ad8565b60405161035291906120b9565b60405180910390f35b61037560048036038101906103709190612275565b610af0565b005b610391600480360381019061038c9190611f35565b610b0d565b60405161039e9190611edd565b60405180910390f35b6103c160048036038101906103bc919061207d565b610b76565b6040516103ce9190611e32565b60405180910390f35b6103df610b96565b6040516103ec9190611e32565b60405180910390f35b61040f600480360381019061040a91906122f8565b610be0565b60405161041c9190611e32565b60405180910390f35b61043f600480360381019061043a9190612398565b610c74565b005b61045b6004803603810190610456919061207d565b610d98565b005b6104776004803603810190610472919061207d565b610e1e565b005b610493600480360381019061048e919061207d565b610eb8565b6040516104a091906120b9565b60405180910390f35b60007f80ac58cd000000000000000000000000000000000000000000000000000000007bffffffffffffffffffffffffffffffffffffffffffffffffffffffff1916827bffffffffffffffffffffffffffffffffffffffffffffffffffffffff1916148061057457507f5b5e139f000000000000000000000000000000000000000000000000000000007bffffffffffffffffffffffffffffffffffffffffffffffffffffffff1916827bffffffffffffffffffffffffffffffffffffffffffffffffffffffff1916145b80610584575061058382610ef0565b5b9050919050565b60606000805461059a90612414565b80601f01602080910402602001604051908101604052809291908181526020018280546105c690612414565b80156106135780601f106105e857610100808354040283529160200191610613565b820191906000526020600020905b8154815290600101906020018083116105f657829003601f168201915b5050505050905090565b600061062882610f5a565b5061063282610fe2565b9050919050565b61064b828261064661101f565b611027565b5050565b600073ffffffffffffffffffffffffffffffffffffffff168273ffffffffffffffffffffffffffffffffffffffff16036106c15760006040517f64a0ae920000000000000000000000000000000000000000000000000000000081526004016106b89190611fa3565b60405180910390fd5b60006106d583836106d061101f565b611039565b90508373ffffffffffffffffffffffffffffffffffffffff168173ffffffffffffffffffffffffffffffffffffffff161461074b578382826040517f64283d7b00000000000000000000000000000000000000000000000000000000815260040161074293929190612445565b60405180910390fd5b50505050565b610759611253565b6000600760008473ffffffffffffffffffffffffffffffffffffffff1673ffffffffffffffffffffffffffffffffffffffff16815260200190815260200160002054146107db576040517f08c379a00000000000000000000000000000000000000000000000000000000081526004016107d2906124c8565b60405180910390fd5b6000600860008473ffffffffffffffffffffffffffffffffffffffff1673ffffffffffffffffffffffffffffffffffffffff16815260200190815260200160002060006101000a81548160ff02191690831515021790555080600760008473ffffffffffffffffffffffffffffffffffffffff1673ffffffffffffffffffffffffffffffffffffffff168152602001908152602001600020819055507f8dcd7c08b0210742c621c9ac106f92321fed60215a0adcd8d5c377e1e0460a41826040516108a69190611fa3565b60405180910390a15050565b6108cd83838360405180602001604052806000815250610af0565b505050565b60006108dd82610f5a565b9050919050565b60008073ffffffffffffffffffffffffffffffffffffffff168273ffffffffffffffffffffffffffffffffffffffff16036109575760006040517f89c62b6400000000000000000000000000000000000000000000000000000000815260040161094e9190611fa3565b60405180910390fd5b600360008373ffffffffffffffffffffffffffffffffffffffff1673ffffffffffffffffffffffffffffffffffffffff168152602001908152602001600020549050919050565b6109a6611253565b6109b060006112da565b565b6000600660009054906101000a900473ffffffffffffffffffffffffffffffffffffffff16905090565b6060600180546109eb90612414565b80601f0160208091040260200160405190810160405280929190818152602001828054610a1790612414565b8015610a645780601f10610a3957610100808354040283529160200191610a64565b820191906000526020600020905b815481529060010190602001808311610a4757829003601f168201915b5050505050905090565b6000600860003373ffffffffffffffffffffffffffffffffffffffff1673ffffffffffffffffffffffffffffffffffffffff16815260200190815260200160002060009054906101000a900460ff16905090565b610ad4610acd61101f565b83836113a0565b5050565b60076020528060005260406000206000915090505481565b610afb84848461064f565b610b078484848461150f565b50505050565b6060610b1882610f5a565b506000610b236116c6565b90506000815111610b435760405180602001604052806000815250610b6e565b80610b4d846116dd565b604051602001610b5e929190612524565b6040516020818303038152906040525b915050919050565b60086020528060005260406000206000915054906101000a900460ff1681565b600080600760003373ffffffffffffffffffffffffffffffffffffffff1673ffffffffffffffffffffffffffffffffffffffff168152602001908152602001600020541415905090565b6000600560008473ffffffffffffffffffffffffffffffffffffffff1673ffffffffffffffffffffffffffffffffffffffff16815260200190815260200160002060008373ffffffffffffffffffffffffffffffffffffffff1673ffffffffffffffffffffffffffffffffffffffff16815260200190815260200160002060009054906101000a900460ff16905092915050565b600860003373ffffffffffffffffffffffffffffffffffffffff1673ffffffffffffffffffffffffffffffffffffffff16815260200190815260200160002060009054906101000a900460ff1615610d01576040517f08c379a0000000000000000000000000000000000000000000000000000000008152600401610cf890612594565b60405180910390fd5b6001600860003373ffffffffffffffffffffffffffffffffffffffff1673ffffffffffffffffffffffffffffffffffffffff16815260200190815260200160002060006101000a81548160ff0219169083151502179055507f830ba109ecd75ed8f7cf70e84af8a141f9826cba017a1f5310caee2c66b923ef338383604051610d8c939291906125e1565b60405180910390a15050565b610da0611253565b600073ffffffffffffffffffffffffffffffffffffffff168173ffffffffffffffffffffffffffffffffffffffff1603610e125760006040517f1e4fbdf7000000000000000000000000000000000000000000000000000000008152600401610e099190611fa3565b60405180910390fd5b610e1b816112da565b50565b610e26611253565b6000600860008373ffffffffffffffffffffffffffffffffffffffff1673ffffffffffffffffffffffffffffffffffffffff16815260200190815260200160002060006101000a81548160ff0219169083151502179055507fb29e757d5253fba3d67723d87fd6a0a2fe961c7c35371f6b852215266d3a303581604051610ead9190611fa3565b60405180910390a150565b6000610ec2611253565b600060096000815480929190610ed790612642565b919050559050610ee783826117ab565b80915050919050565b60007f01ffc9a7000000000000000000000000000000000000000000000000000000007bffffffffffffffffffffffffffffffffffffffffffffffffffffffff1916827bffffffffffffffffffffffffffffffffffffffffffffffffffffffff1916149050919050565b600080610f66836118a4565b9050600073ffffffffffffffffffffffffffffffffffffffff168173ffffffffffffffffffffffffffffffffffffffff1603610fd957826040517f7e273289000000000000000000000000000000000000000000000000000000008152600401610fd091906120b9565b60405180910390fd5b80915050919050565b60006004600083815260200190815260200160002060009054906101000a900473ffffffffffffffffffffffffffffffffffffffff169050919050565b600033905090565b61103483838360016118e1565b505050565b600080611045846118a4565b9050600073ffffffffffffffffffffffffffffffffffffffff168373ffffffffffffffffffffffffffffffffffffffff161461108757611086818486611aa6565b5b600073ffffffffffffffffffffffffffffffffffffffff168173ffffffffffffffffffffffffffffffffffffffff1614611118576110c96000856000806118e1565b6001600360008373ffffffffffffffffffffffffffffffffffffffff1673ffffffffffffffffffffffffffffffffffffffff168152602001908152602001600020600082825403925050819055505b600073ffffffffffffffffffffffffffffffffffffffff168573ffffffffffffffffffffffffffffffffffffffff161461119b576001600360008773ffffffffffffffffffffffffffffffffffffffff1673ffffffffffffffffffffffffffffffffffffffff168152602001908152602001600020600082825401925050819055505b846002600086815260200190815260200160002060006101000a81548173ffffffffffffffffffffffffffffffffffffffff021916908373ffffffffffffffffffffffffffffffffffffffff160217905550838573ffffffffffffffffffffffffffffffffffffffff168273ffffffffffffffffffffffffffffffffffffffff167fddf252ad1be2c89b69c2b068fc378daa952ba7f163c4a11628f55a4df523b3ef60405160405180910390a4809150509392505050565b61125b61101f565b73ffffffffffffffffffffffffffffffffffffffff166112796109b2565b73ffffffffffffffffffffffffffffffffffffffff16146112d85761129c61101f565b6040517f118cdaa70000000000000000000000000000000000000000000000000000000081526004016112cf9190611fa3565b60405180910390fd5b565b6000600660009054906101000a900473ffffffffffffffffffffffffffffffffffffffff16905081600660006101000a81548173ffffffffffffffffffffffffffffffffffffffff021916908373ffffffffffffffffffffffffffffffffffffffff1602179055508173ffffffffffffffffffffffffffffffffffffffff168173ffffffffffffffffffffffffffffffffffffffff167f8be0079c531659141344cd1fd0a4f28419497f9722a3daafe3b4186f6b6457e060405160405180910390a35050565b600073ffffffffffffffffffffffffffffffffffffffff168273ffffffffffffffffffffffffffffffffffffffff160361141157816040517f5b08ba180000000000000000000000000000000000000000000000000000000081526004016114089190611fa3565b60405180910390fd5b80600560008573ffffffffffffffffffffffffffffffffffffffff1673ffffffffffffffffffffffffffffffffffffffff16815260200190815260200160002060008473ffffffffffffffffffffffffffffffffffffffff1673ffffffffffffffffffffffffffffffffffffffff16815260200190815260200160002060006101000a81548160ff0219169083151502179055508173ffffffffffffffffffffffffffffffffffffffff168373ffffffffffffffffffffffffffffffffffffffff167f17307eab39ab6107e8899845ad3d59bd9653f200f220920489ca2b5937696c31836040516115029190611e32565b60405180910390a3505050565b60008373ffffffffffffffffffffffffffffffffffffffff163b11156116c0578273ffffffffffffffffffffffffffffffffffffffff1663150b7a0261155361101f565b8685856040518563ffffffff1660e01b815260040161157594939291906126df565b6020604051808303816000875af19250505080156115b157506040513d601f19601f820116820180604052508101906115ae9190612740565b60015b611635573d80600081146115e1576040519150601f19603f3d011682016040523d82523d6000602084013e6115e6565b606091505b50600081510361162d57836040517f64a0ae920000000000000000000000000000000000000000000000000000000081526004016116249190611fa3565b60405180910390fd5b805181602001fd5b63150b7a0260e01b7bffffffffffffffffffffffffffffffffffffffffffffffffffffffff1916817bffffffffffffffffffffffffffffffffffffffffffffffffffffffff1916146116be57836040517f64a0ae920000000000000000000000000000000000000000000000000000000081526004016116b59190611fa3565b60405180910390fd5b505b50505050565b606060405180602001604052806000815250905090565b6060600060016116ec84611b6a565b01905060008167ffffffffffffffff81111561170b5761170a61214a565b5b6040519080825280601f01601f19166020018201604052801561173d5781602001600182028036833780820191505090505b509050600082602001820190505b6001156117a0578080600190039150507f3031323334353637383961626364656600000000000000000000000000000000600a86061a8153600a85816117945761179361276d565b5b0494506000850361174b575b819350505050919050565b600073ffffffffffffffffffffffffffffffffffffffff168273ffffffffffffffffffffffffffffffffffffffff160361181d5760006040517f64a0ae920000000000000000000000000000000000000000000000000000000081526004016118149190611fa3565b60405180910390fd5b600061182b83836000611039565b9050600073ffffffffffffffffffffffffffffffffffffffff168173ffffffffffffffffffffffffffffffffffffffff161461189f5760006040517f73c6ac6e0000000000000000000000000000000000000000000000000000000081526004016118969190611fa3565b60405180910390fd5b505050565b60006002600083815260200190815260200160002060009054906101000a900473ffffffffffffffffffffffffffffffffffffffff169050919050565b808061191a5750600073ffffffffffffffffffffffffffffffffffffffff168273ffffffffffffffffffffffffffffffffffffffff1614155b15611a4e57600061192a84610f5a565b9050600073ffffffffffffffffffffffffffffffffffffffff168373ffffffffffffffffffffffffffffffffffffffff161415801561199557508273ffffffffffffffffffffffffffffffffffffffff168173ffffffffffffffffffffffffffffffffffffffff1614155b80156119a857506119a68184610be0565b155b156119ea57826040517fa9fbf51f0000000000000000000000000000000000000000000000000000000081526004016119e19190611fa3565b60405180910390fd5b8115611a4c57838573ffffffffffffffffffffffffffffffffffffffff168273ffffffffffffffffffffffffffffffffffffffff167f8c5be1e5ebec7d5bd14f71427d1e84f3dd0314c0f7b2291e5b200ac8c7c3b92560405160405180910390a45b505b836004600085815260200190815260200160002060006101000a81548173ffffffffffffffffffffffffffffffffffffffff021916908373ffffffffffffffffffffffffffffffffffffffff16021790555050505050565b611ab1838383611cbd565b611b6557600073ffffffffffffffffffffffffffffffffffffffff168373ffffffffffffffffffffffffffffffffffffffff1603611b2657806040517f7e273289000000000000000000000000000000000000000000000000000000008152600401611b1d91906120b9565b60405180910390fd5b81816040517f177e802f000000000000000000000000000000000000000000000000000000008152600401611b5c92919061279c565b60405180910390fd5b505050565b600080600090507a184f03e93ff9f4daa797ed6e38ed64bf6a1f0100000000000000008310611bc8577a184f03e93ff9f4daa797ed6e38ed64bf6a1f0100000000000000008381611bbe57611bbd61276d565b5b0492506040810190505b6d04ee2d6d415b85acef81000000008310611c05576d04ee2d6d415b85acef81000000008381611bfb57611bfa61276d565b5b0492506020810190505b662386f26fc100008310611c3457662386f26fc100008381611c2a57611c2961276d565b5b0492506010810190505b6305f5e1008310611c5d576305f5e1008381611c5357611c5261276d565b5b0492506008810190505b6127108310611c82576127108381611c7857611c7761276d565b5b0492506004810190505b60648310611ca55760648381611c9b57611c9a61276d565b5b0492506002810190505b600a8310611cb4576001810190505b80915050919050565b60008073ffffffffffffffffffffffffffffffffffffffff168373ffffffffffffffffffffffffffffffffffffffff1614158015611d7557508273ffffffffffffffffffffffffffffffffffffffff168473ffffffffffffffffffffffffffffffffffffffff161480611d365750611d358484610be0565b5b80611d7457508273ffffffffffffffffffffffffffffffffffffffff16611d5c83610fe2565b73ffffffffffffffffffffffffffffffffffffffff16145b5b90509392505050565b6000604051905090565b600080fd5b600080fd5b60007fffffffff0000000000000000000000000000000000000000000000000000000082169050919050565b611dc781611d92565b8114611dd257600080fd5b50565b600081359050611de481611dbe565b92915050565b600060208284031215611e0057611dff611d88565b5b6000611e0e84828501611dd5565b91505092915050565b60008115159050919050565b611e2c81611e17565b82525050565b6000602082019050611e476000830184611e23565b92915050565b600081519050919050565b600082825260208201905092915050565b60005b83811015611e87578082015181840152602081019050611e6c565b60008484015250505050565b6000601f19601f8301169050919050565b6000611eaf82611e4d565b611eb98185611e58565b9350611ec9818560208601611e69565b611ed281611e93565b840191505092915050565b60006020820190508181036000830152611ef78184611ea4565b905092915050565b6000819050919050565b611f1281611eff565b8114611f1d57600080fd5b50565b600081359050611f2f81611f09565b92915050565b600060208284031215611f4b57611f4a611d88565b5b6000611f5984828501611f20565b91505092915050565b600073ffffffffffffffffffffffffffffffffffffffff82169050919050565b6000611f8d82611f62565b9050919050565b611f9d81611f82565b82525050565b6000602082019050611fb86000830184611f94565b92915050565b611fc781611f82565b8114611fd257600080fd5b50565b600081359050611fe481611fbe565b92915050565b6000806040838503121561200157612000611d88565b5b600061200f85828601611fd5565b925050602061202085828601611f20565b9150509250929050565b60008060006060848603121561204357612042611d88565b5b600061205186828701611fd5565b935050602061206286828701611fd5565b925050604061207386828701611f20565b9150509250925092565b60006020828403121561209357612092611d88565b5b60006120a184828501611fd5565b91505092915050565b6120b381611eff565b82525050565b60006020820190506120ce60008301846120aa565b92915050565b6120dd81611e17565b81146120e857600080fd5b50565b6000813590506120fa816120d4565b92915050565b6000806040838503121561211757612116611d88565b5b600061212585828601611fd5565b9250506020612136858286016120eb565b9150509250929050565b600080fd5b600080fd5b7f4e487b7100000000000000000000000000000000000000000000000000000000600052604160045260246000fd5b61218282611e93565b810181811067ffffffffffffffff821117156121a1576121a061214a565b5b80604052505050565b60006121b4611d7e565b90506121c08282612179565b919050565b600067ffffffffffffffff8211156121e0576121df61214a565b5b6121e982611e93565b9050602081019050919050565b82818337600083830152505050565b6000612218612213846121c5565b6121aa565b90508281526020810184848401111561223457612233612145565b5b61223f8482856121f6565b509392505050565b600082601f83011261225c5761225b612140565b5b813561226c848260208601612205565b91505092915050565b6000806000806080858703121561228f5761228e611d88565b5b600061229d87828801611fd5565b94505060206122ae87828801611fd5565b93505060406122bf87828801611f20565b925050606085013567ffffffffffffffff8111156122e0576122df611d8d565b5b6122ec87828801612247565b91505092959194509250565b6000806040838503121561230f5761230e611d88565b5b600061231d85828601611fd5565b925050602061232e85828601611fd5565b9150509250929050565b600080fd5b600080fd5b60008083601f84011261235857612357612140565b5b8235905067ffffffffffffffff81111561237557612374612338565b5b6020830191508360018202830111156123915761239061233d565b5b9250929050565b600080602083850312156123af576123ae611d88565b5b600083013567ffffffffffffffff8111156123cd576123cc611d8d565b5b6123d985828601612342565b92509250509250929050565b7f4e487b7100000000000000000000000000000000000000000000000000000000600052602260045260246000fd5b6000600282049050600182168061242c57607f821691505b60208210810361243f5761243e6123e5565b5b50919050565b600060608201905061245a6000830186611f94565b61246760208301856120aa565b6124746040830184611f94565b949350505050565b7f416c726561647920726567697374657265640000000000000000000000000000600082015250565b60006124b2601283611e58565b91506124bd8261247c565b602082019050919050565b600060208201905081810360008301526124e1816124a5565b9050919050565b600081905092915050565b60006124fe82611e4d565b61250881856124e8565b9350612518818560208601611e69565b80840191505092915050565b600061253082856124f3565b915061253c82846124f3565b91508190509392505050565b7f416c72656164792070656e64696e670000000000000000000000000000000000600082015250565b600061257e600f83611e58565b915061258982612548565b602082019050919050565b600060208201905081810360008301526125ad81612571565b9050919050565b60006125c08385611e58565b93506125cd8385846121f6565b6125d683611e93565b840190509392505050565b60006040820190506125f66000830186611f94565b81810360208301526126098184866125b4565b9050949350505050565b7f4e487b7100000000000000000000000000000000000000000000000000000000600052601160045260246000fd5b600061264d82611eff565b91507fffffffffffffffffffffffffffffffffffffffffffffffffffffffffffffffff820361267f5761267e612613565b5b600182019050919050565b600081519050919050565b600082825260208201905092915050565b60006126b18261268a565b6126bb8185612695565b93506126cb818560208601611e69565b6126d481611e93565b840191505092915050565b60006080820190506126f46000830187611f94565b6127016020830186611f94565b61270e60408301856120aa565b818103606083015261272081846126a6565b905095945050505050565b60008151905061273a81611dbe565b92915050565b60006020828403121561275657612755611d88565b5b60006127648482850161272b565b91505092915050565b7f4e487b7100000000000000000000000000000000000000000000000000000000600052601260045260246000fd5b60006040820190506127b16000830185611f94565b6127be60208301846120aa565b939250505056fea2646970667358221220f8e4a55bf2256c940024cf589c616a8f9ceddf2f54e183922eaced0a2a922fd864736f6c63430008140033",
  "linkReferences": {},
  "deployedLinkReferences": {}
}