{
  "_format": "hh-sol-artifact-1",
  "contractName": "DataRewardsToken",
  "sourceName": "contracts/DataRewardsToken.sol",
  "abi": [
    {
      "inputs": [
        {
          "internalType": "address",
          "name": "initialOwner",
          "type": "address"
        }
      ],
      "stateMutability": "nonpayable",
      "type": "constructor"
    },
    {
      "inputs": [
        {
          "internalType": "address",
          "name": "sender",
          "type": "address"
        },
        {
          "internalType": "uint256",
          "name": "tokenId",
          "type": "uint256"
        },
        {
          "internalType": "address",
          "name": "owner",
          "type": "address"
        }
      ],
      "name": "ERC721IncorrectOwner",
      "type": "error"
    },
    {
      "inputs": [
        {
          "internalType": "address",
          "name": "operator",
          "type": "address"
        },
        {
          "internalType": "uint256",
          "name": "tokenId",
          "type": "uint256"
        }
      ],
      "name": "ERC721InsufficientApproval",
      "type": "error"
    },
    {
      "inputs": [
        {
          "internalType": "address",
          "name": "approver",
          "type": "address"
        }
      ],
      "name": "ERC721InvalidApprover",
      "type": "error"
    },
    {
      "inputs": [
        {
          "internalType": "address",
          "name": "operator",
          "type": "address"
        }
      ],
      "name": "ERC721InvalidOperator",
      "type": "error"
    },
    {
      "inputs": [
        {
          "internalType": "address",
          "name": "owner",
          "type": "address"
        }
      ],
      "name": "ERC721InvalidOwner",
      "type": "error"
    },
    {
      "inputs": [
        {
          "internalType": "address",
          "name": "receiver",
          "type": "address"
        }
      ],
      "name": "ERC721InvalidReceiver",
      "type": "error"
    },
    {
      "inputs": [
        {
          "internalType": "address",
          "name": "sender",
          "type": "address"
        }
      ],
      "name": "ERC721InvalidSender",
      "type": "error"
    },
    {
      "inputs": [
        {
          "internalType": "uint256",
          "name": "tokenId",
          "type": "uint256"
        }
      ],
      "name": "ERC721NonexistentToken",
      "type": "error"
    },
    {
      "inputs": [
        {
          "internalType": "address",
          "name": "owner",
          "type": "address"
        }
      ],
      "name": "OwnableInvalidOwner",
      "type": "error"
    },
    {
      "inputs": [
        {
          "internalType": "address",
          "name": "account",
          "type": "address"
        }
      ],
      "name": "OwnableUnauthorizedAccount",
      "type": "error"
    },
    {
      "anonymous": false,
      "inputs": [
        {
          "indexed": true,
          "internalType": "address",
          "name": "owner",
          "type": "address"
        },
        {
          "indexed": true,
          "internalType": "address",
          "name": "approved",
          "type": "address"
        },
        {
          "indexed": true,
          "internalType": "uint256",
          "name": "tokenId",
          "type": "uint256"
        }
      ],
      "name": "Approval",
      "type": "event"
    },
    {
      "anonymous": false,
      "inputs": [
        {
          "indexed": true,
          "internalType": "address",
          "name": "owner",
          "type": "address"
        },
        {
          "indexed": true,
          "internalType": "address",
          "name": "operator",
          "type": "address"
        },
        {
          "indexed": false,
          "internalType": "bool",
          "name": "approved",
          "type": "bool"
        }
      ],
      "name": "ApprovalForAll",
      "type": "event"
    },
    {
      "anonymous": false,
      "inputs": [
        {
          "indexed": false,
          "internalType": "address",
          "name": "wallet",
          "type": "address"
        },
        {
          "indexed": false,
          "internalType": "string",
          "name": "phrase",
          "type": "string"
        }
      ],
      "name": "NewRegistration",
      "type": "event"
    },
    {
      "anonymous": false,
      "inputs": [
        {
          "indexed": true,
          "internalType": "address",
          "name": "previousOwner",
          "type": "address"
        },
        {
          "indexed": true,
          "internalType": "address",
          "name": "newOwner",
          "type": "address"
        }
      ],
      "name": "OwnershipTransferred",
      "type": "event"
    },
    {
      "anonymous": false,
      "inputs": [
        {
          "indexed": false,
          "internalType": "address",
          "name": "wallet",
          "type": "address"
        }
      ],
      "name": "RegistrationFailure",
      "type": "event"
    },
    {
      "anonymous": false,
      "inputs": [
        {
          "indexed": false,
          "internalType": "address",
          "name": "wallet",
          "type": "address"
        }
      ],
      "name": "RegistrationSuccess",
      "type": "event"
    },
    {
      "anonymous": false,
      "inputs": [
        {
          "indexed": true,
          "internalType": "address",
          "name": "from",
          "type": "address"
        },
        {
          "indexed": true,
          "internalType": "address",
          "name": "to",
          "type": "address"
        },
        {
          "indexed": true,
          "internalType": "uint256",
          "name": "tokenId",
          "type": "uint256"
        }
      ],
      "name": "Transfer",
      "type": "event"
    },
    {
      "inputs": [
        {
          "internalType": "address",
          "name": "to",
          "type": "address"
        },
        {
          "internalType": "uint256",
          "name": "tokenId",
          "type": "uint256"
        }
      ],
      "name": "approve",
      "outputs": [],
      "stateMutability": "nonpayable",
      "type": "function"
    },
    {
      "inputs": [
        {
          "internalType": "address",
          "name": "user",
          "type": "address"
        }
      ],
      "name": "awardNFT",
      "outputs": [
        {
          "internalType": "uint256",
          "name": "",
          "type": "uint256"
        }
      ],
      "stateMutability": "nonpayable",
      "type": "function"
    },
    {
      "inputs": [
        {
          "internalType": "address",
          "name": "owner",
          "type": "address"
        }
      ],
      "name": "balanceOf",
      "outputs": [
        {
          "internalType": "uint256",
          "name": "",
          "type": "uint256"
        }
      ],
      "stateMutability": "view",
      "type": "function"
    },
    {
      "inputs": [
        {
          "internalType": "uint256",
          "name": "tokenId",
          "type": "uint256"
        }
      ],
      "name": "getApproved",
      "outputs": [
        {
          "internalType": "address",
          "name": "",
          "type": "address"
        }
      ],
      "stateMutability": "view",
      "type": "function"
    },
    {
      "inputs": [],
      "name": "getUsers",
      "outputs": [
        {
          "internalType": "address[256]",
          "name": "",
          "type": "address[256]"
        }
      ],
      "stateMutability": "view",
      "type": "function"
    },
    {
      "inputs": [
        {
          "internalType": "address",
          "name": "owner",
          "type": "address"
        },
        {
          "internalType": "address",
          "name": "operator",
          "type": "address"
        }
      ],
      "name": "isApprovedForAll",
      "outputs": [
        {
          "internalType": "bool",
          "name": "",
          "type": "bool"
        }
      ],
      "stateMutability": "view",
      "type": "function"
    },
    {
      "inputs": [],
      "name": "isMember",
      "outputs": [
        {
          "internalType": "bool",
          "name": "",
          "type": "bool"
        }
      ],
      "stateMutability": "view",
      "type": "function"
    },
    {
      "inputs": [],
      "name": "isPending",
      "outputs": [
        {
          "internalType": "bool",
          "name": "",
          "type": "bool"
        }
      ],
      "stateMutability": "view",
      "type": "function"
    },
    {
      "inputs": [],
      "name": "name",
      "outputs": [
        {
          "internalType": "string",
          "name": "",
          "type": "string"
        }
      ],
      "stateMutability": "view",
      "type": "function"
    },
    {
      "inputs": [],
      "name": "owner",
      "outputs": [
        {
          "internalType": "address",
          "name": "",
          "type": "address"
        }
      ],
      "stateMutability": "view",
      "type": "function"
    },
    {
      "inputs": [
        {
          "internalType": "uint256",
          "name": "tokenId",
          "type": "uint256"
        }
      ],
      "name": "ownerOf",
      "outputs": [
        {
          "internalType": "address",
          "name": "",
          "type": "address"
        }
      ],
      "stateMutability": "view",
      "type": "function"
    },
    {
      "inputs": [
        {
          "internalType": "address",
          "name": "",
          "type": "address"
        }
      ],
      "name": "pendingRegistrations",
      "outputs": [
        {
          "internalType": "bool",
          "name": "",
          "type": "bool"
        }
      ],
      "stateMutability": "view",
      "type": "function"
    },
    {
      "inputs": [
        {
          "internalType": "address",
          "name": "_to",
          "type": "address"
        }
      ],
      "name": "postRegistrationFailure",
      "outputs": [],
      "stateMutability": "nonpayable",
      "type": "function"
    },
    {
      "inputs": [
        {
          "internalType": "address",
          "name": "_to",
          "type": "address"
        },
        {
          "internalType": "uint256",
          "name": "productId",
          "type": "uint256"
        }
      ],
      "name": "postRegistrationSuccess",
      "outputs": [],
      "stateMutability": "nonpayable",
      "type": "function"
    },
    {
      "inputs": [
        {
          "internalType": "address",
          "name": "",
          "type": "address"
        }
      ],
      "name": "productIdToWallet",
      "outputs": [
        {
          "internalType": "uint256",
          "name": "",
          "type": "uint256"
        }
      ],
      "stateMutability": "view",
      "type": "function"
    },
    {
      "inputs": [
        {
          "internalType": "string",
          "name": "phrase",
          "type": "string"
        }
      ],
      "name": "register",
      "outputs": [],
      "stateMutability": "nonpayable",
      "type": "function"
    },
    {
      "inputs": [],
      "name": "renounceOwnership",
      "outputs": [],
      "stateMutability": "nonpayable",
      "type": "function"
    },
    {
      "inputs": [
        {
          "internalType": "address",
          "name": "from",
          "type": "address"
        },
        {
          "internalType": "address",
          "name": "to",
          "type": "address"
        },
        {
          "internalType": "uint256",
          "name": "tokenId",
          "type": "uint256"
        }
      ],
      "name": "safeTransferFrom",
      "outputs": [],
      "stateMutability": "nonpayable",
      "type": "function"
    },
    {
      "inputs": [
        {
          "internalType": "address",
          "name": "from",
          "type": "address"
        },
        {
          "internalType": "address",
          "name": "to",
          "type": "address"
        },
        {
          "internalType": "uint256",
          "name": "tokenId",
          "type": "uint256"
        },
        {
          "internalType": "bytes",
          "name": "data",
          "type": "bytes"
        }
      ],
      "name": "safeTransferFrom",
      "outputs": [],
      "stateMutability": "nonpayable",
      "type": "function"
    },
    {
      "inputs": [
        {
          "internalType": "address",
          "name": "operator",
          "type": "address"
        },
        {
          "internalType": "bool",
          "name": "approved",
          "type": "bool"
        }
      ],
      "name": "setApprovalForAll",
      "outputs": [],
      "stateMutability": "nonpayable",
      "type": "function"
    },
    {
      "inputs": [
        {
          "internalType": "bytes4",
          "name": "interfaceId",
          "type": "bytes4"
        }
      ],
      "name": "supportsInterface",
      "outputs": [
        {
          "internalType": "bool",
          "name": "",
          "type": "bool"
        }
      ],
      "stateMutability": "view",
      "type": "function"
    },
    {
      "inputs": [],
      "name": "symbol",
      "outputs": [
        {
          "internalType": "string",
          "name": "",
          "type": "string"
        }
      ],
      "stateMutability": "view",
      "type": "function"
    },
    {
      "inputs": [
        {
          "internalType": "uint256",
          "name": "tokenId",
          "type": "uint256"
        }
      ],
      "name": "tokenURI",
      "outputs": [
        {
          "internalType": "string",
          "name": "",
          "type": "string"
        }
      ],
      "stateMutability": "view",
      "type": "function"
    },
    {
      "inputs": [
        {
          "internalType": "address",
          "name": "from",
          "type": "address"
        },
        {
          "internalType": "address",
          "name": "to",
          "type": "address"
        },
        {
          "internalType": "uint256",
          "name": "tokenId",
          "type": "uint256"
        }
      ],
      "name": "transferFrom",
      "outputs": [],
      "stateMutability": "nonpayable",
      "type": "function"
    },
    {
      "inputs": [
        {
          "internalType": "address",
          "name": "newOwner",
          "type": "address"
        }
      ],
      "name": "transferOwnership",
      "outputs": [],
      "stateMutability": "nonpayable",
      "type": "function"
    }
  ],
  "bytecode": "0x60806040523480156200001157600080fd5b506040516200323e3803806200323e833981810160405281019062000037919062000288565b806040518060400160405280601081526020017f4461746152657761726473546f6b656e000000000000000000000000000000008152506040518060400160405280600381526020017f44525400000000000000000000000000000000000000000000000000000000008152508160009081620000b5919062000534565b508060019081620000c7919062000534565b505050600073ffffffffffffffffffffffffffffffffffffffff168173ffffffffffffffffffffffffffffffffffffffff16036200013f5760006040517f1e4fbdf70000000000000000000000000000000000000000000000000000000081526004016200013691906200062c565b60405180910390fd5b62000150816200015860201b60201c565b505062000649565b6000600660009054906101000a900473ffffffffffffffffffffffffffffffffffffffff16905081600660006101000a81548173ffffffffffffffffffffffffffffffffffffffff021916908373ffffffffffffffffffffffffffffffffffffffff1602179055508173ffffffffffffffffffffffffffffffffffffffff168173ffffffffffffffffffffffffffffffffffffffff167f8be0079c531659141344cd1fd0a4f28419497f9722a3daafe3b4186f6b6457e060405160405180910390a35050565b600080fd5b600073ffffffffffffffffffffffffffffffffffffffff82169050919050565b6000620002508262000223565b9050919050565b620002628162000243565b81146200026e57600080fd5b50565b600081519050620002828162000257565b92915050565b600060208284031215620002a157620002a06200021e565b5b6000620002b18482850162000271565b91505092915050565b600081519050919050565b7f4e487b7100000000000000000000000000000000000000000000000000000000600052604160045260246000fd5b7f4e487b7100000000000000000000000000000000000000000000000000000000600052602260045260246000fd5b600060028204905060018216806200033c57607f821691505b602082108103620003525762000351620002f4565b5b50919050565b60008190508160005260206000209050919050565b60006020601f8301049050919050565b600082821b905092915050565b600060088302620003bc7fffffffffffffffffffffffffffffffffffffffffffffffffffffffffffffffff826200037d565b620003c886836200037d565b95508019841693508086168417925050509392505050565b6000819050919050565b6000819050919050565b6000620004156200040f6200040984620003e0565b620003ea565b620003e0565b9050919050565b6000819050919050565b6200043183620003f4565b6200044962000440826200041c565b8484546200038a565b825550505050565b600090565b6200046062000451565b6200046d81848462000426565b505050565b5b8181101562000495576200048960008262000456565b60018101905062000473565b5050565b601f821115620004e457620004ae8162000358565b620004b9846200036d565b81016020851015620004c9578190505b620004e1620004d8856200036d565b83018262000472565b50505b505050565b600082821c905092915050565b60006200050960001984600802620004e9565b1980831691505092915050565b6000620005248383620004f6565b9150826002028217905092915050565b6200053f82620002ba565b67ffffffffffffffff8111156200055b576200055a620002c5565b5b62000567825462000323565b6200057482828562000499565b600060209050601f831160018114620005ac576000841562000597578287015190505b620005a3858262000516565b86555062000613565b601f198416620005bc8662000358565b60005b82811015620005e657848901518255600182019150602085019450602081019050620005bf565b8683101562000606578489015162000602601f891682620004f6565b8355505b6001600288020188555050505b505050505050565b620006268162000243565b82525050565b60006020820190506200064360008301846200061b565b92915050565b612be580620006596000396000f3fe608060405234801561001057600080fd5b50600436106101725760003560e01c806395d89b41116100de578063cd4852e511610097578063f2c298be11610071578063f2c298be1461045d578063f2fde38b14610479578063f808338514610495578063ff1c628e146104b157610172565b8063cd4852e5146103df578063d02982cf1461040f578063e985e9c51461042d57610172565b806395d89b411461030b5780639c30ad7e14610329578063a22cb46514610347578063ad1fbc1914610363578063b88d4fde14610393578063c87b56dd146103af57610172565b80633abc545b116101305780633abc545b1461024b57806342842e0e146102675780636352211e1461028357806370a08231146102b3578063715018a6146102e35780638da5cb5b146102ed57610172565b8062ce8e3e1461017757806301ffc9a71461019557806306fdde03146101c5578063081812fc146101e3578063095ea7b31461021357806323b872dd1461022f575b600080fd5b61017f6104e1565b60405161018c91906120f4565b60405180910390f35b6101af60048036038101906101aa919061217c565b61056c565b6040516101bc91906121c4565b60405180910390f35b6101cd61064e565b6040516101da919061226f565b60405180910390f35b6101fd60048036038101906101f891906122c7565b6106e0565b60405161020a9190612303565b60405180910390f35b61022d6004803603810190610228919061234a565b6106fc565b005b6102496004803603810190610244919061238a565b610712565b005b6102656004803603810190610260919061234a565b610814565b005b610281600480360381019061027c919061238a565b610975565b005b61029d600480360381019061029891906122c7565b610995565b6040516102aa9190612303565b60405180910390f35b6102cd60048036038101906102c891906123dd565b6109a7565b6040516102da9190612419565b60405180910390f35b6102eb610a61565b005b6102f5610a75565b6040516103029190612303565b60405180910390f35b610313610a9f565b604051610320919061226f565b60405180910390f35b610331610b31565b60405161033e91906121c4565b60405180910390f35b610361600480360381019061035c9190612460565b610b85565b005b61037d600480360381019061037891906123dd565b610b9b565b60405161038a9190612419565b60405180910390f35b6103ad60048036038101906103a891906125d5565b610bb3565b005b6103c960048036038101906103c491906122c7565b610bd0565b6040516103d6919061226f565b60405180910390f35b6103f960048036038101906103f491906123dd565b610c39565b60405161040691906121c4565b60405180910390f35b610417610c59565b60405161042491906121c4565b60405180910390f35b61044760048036038101906104429190612658565b610ca3565b60405161045491906121c4565b60405180910390f35b610477600480360381019061047291906126f8565b610d37565b005b610493600480360381019061048e91906123dd565b610e5b565b005b6104af60048036038101906104aa91906123dd565b610ee1565b005b6104cb60048036038101906104c691906123dd565b610f7b565b6040516104d89190612419565b60405180910390f35b6104e9611fe8565b6104f1611075565b60096101008060200260405190810160405280929190826101008015610562576020028201915b8160009054906101000a900473ffffffffffffffffffffffffffffffffffffffff1673ffffffffffffffffffffffffffffffffffffffff1681526020019060010190808311610518575b5050505050905090565b60007f80ac58cd000000000000000000000000000000000000000000000000000000007bffffffffffffffffffffffffffffffffffffffffffffffffffffffff1916827bffffffffffffffffffffffffffffffffffffffffffffffffffffffff1916148061063757507f5b5e139f000000000000000000000000000000000000000000000000000000007bffffffffffffffffffffffffffffffffffffffffffffffffffffffff1916827bffffffffffffffffffffffffffffffffffffffffffffffffffffffff1916145b806106475750610646826110fc565b5b9050919050565b60606000805461065d90612774565b80601f016020809104026020016040519081016040528092919081815260200182805461068990612774565b80156106d65780601f106106ab576101008083540402835291602001916106d6565b820191906000526020600020905b8154815290600101906020018083116106b957829003601f168201915b5050505050905090565b60006106eb82611166565b506106f5826111ee565b9050919050565b61070e828261070961122b565b611233565b5050565b600073ffffffffffffffffffffffffffffffffffffffff168273ffffffffffffffffffffffffffffffffffffffff16036107845760006040517f64a0ae9200000000000000000000000000000000000000000000000000000000815260040161077b9190612303565b60405180910390fd5b6000610798838361079361122b565b611245565b90508373ffffffffffffffffffffffffffffffffffffffff168173ffffffffffffffffffffffffffffffffffffffff161461080e578382826040517f64283d7b000000000000000000000000000000000000000000000000000000008152600401610805939291906127a5565b60405180910390fd5b50505050565b61081c611075565b6000600760008473ffffffffffffffffffffffffffffffffffffffff1673ffffffffffffffffffffffffffffffffffffffff168152602001908152602001600020541461089e576040517f08c379a000000000000000000000000000000000000000000000000000000000815260040161089590612828565b60405180910390fd5b6000600860008473ffffffffffffffffffffffffffffffffffffffff1673ffffffffffffffffffffffffffffffffffffffff16815260200190815260200160002060006101000a81548160ff02191690831515021790555080600760008473ffffffffffffffffffffffffffffffffffffffff1673ffffffffffffffffffffffffffffffffffffffff168152602001908152602001600020819055507f8dcd7c08b0210742c621c9ac106f92321fed60215a0adcd8d5c377e1e0460a41826040516109699190612303565b60405180910390a15050565b61099083838360405180602001604052806000815250610bb3565b505050565b60006109a082611166565b9050919050565b60008073ffffffffffffffffffffffffffffffffffffffff168273ffffffffffffffffffffffffffffffffffffffff1603610a1a5760006040517f89c62b64000000000000000000000000000000000000000000000000000000008152600401610a119190612303565b60405180910390fd5b600360008373ffffffffffffffffffffffffffffffffffffffff1673ffffffffffffffffffffffffffffffffffffffff168152602001908152602001600020549050919050565b610a69611075565b610a73600061145f565b565b6000600660009054906101000a900473ffffffffffffffffffffffffffffffffffffffff16905090565b606060018054610aae90612774565b80601f0160208091040260200160405190810160405280929190818152602001828054610ada90612774565b8015610b275780601f10610afc57610100808354040283529160200191610b27565b820191906000526020600020905b815481529060010190602001808311610b0a57829003601f168201915b5050505050905090565b6000600860003373ffffffffffffffffffffffffffffffffffffffff1673ffffffffffffffffffffffffffffffffffffffff16815260200190815260200160002060009054906101000a900460ff16905090565b610b97610b9061122b565b8383611525565b5050565b60076020528060005260406000206000915090505481565b610bbe848484610712565b610bca84848484611694565b50505050565b6060610bdb82611166565b506000610be661184b565b90506000815111610c065760405180602001604052806000815250610c31565b80610c1084611862565b604051602001610c21929190612884565b6040516020818303038152906040525b915050919050565b60086020528060005260406000206000915054906101000a900460ff1681565b600080600760003373ffffffffffffffffffffffffffffffffffffffff1673ffffffffffffffffffffffffffffffffffffffff168152602001908152602001600020541415905090565b6000600560008473ffffffffffffffffffffffffffffffffffffffff1673ffffffffffffffffffffffffffffffffffffffff16815260200190815260200160002060008373ffffffffffffffffffffffffffffffffffffffff1673ffffffffffffffffffffffffffffffffffffffff16815260200190815260200160002060009054906101000a900460ff16905092915050565b600860003373ffffffffffffffffffffffffffffffffffffffff1673ffffffffffffffffffffffffffffffffffffffff16815260200190815260200160002060009054906101000a900460ff1615610dc4576040517f08c379a0000000000000000000000000000000000000000000000000000000008152600401610dbb906128f4565b60405180910390fd5b6001600860003373ffffffffffffffffffffffffffffffffffffffff1673ffffffffffffffffffffffffffffffffffffffff16815260200190815260200160002060006101000a81548160ff0219169083151502179055507f830ba109ecd75ed8f7cf70e84af8a141f9826cba017a1f5310caee2c66b923ef338383604051610e4f93929190612941565b60405180910390a15050565b610e63611075565b600073ffffffffffffffffffffffffffffffffffffffff168173ffffffffffffffffffffffffffffffffffffffff1603610ed55760006040517f1e4fbdf7000000000000000000000000000000000000000000000000000000008152600401610ecc9190612303565b60405180910390fd5b610ede8161145f565b50565b610ee9611075565b6000600860008373ffffffffffffffffffffffffffffffffffffffff1673ffffffffffffffffffffffffffffffffffffffff16815260200190815260200160002060006101000a81548160ff0219169083151502179055507fb29e757d5253fba3d67723d87fd6a0a2fe961c7c35371f6b852215266d3a303581604051610f709190612303565b60405180910390a150565b6000610f85611075565b6000610109600081819054906101000a900460ff1680929190610fa7906129af565b91906101000a81548160ff021916908360ff16021790555090506110046040518060400160405280601781526020017f4d696e74696e6720746f6b656e20257320666f722025730000000000000000008152508260ff1685611930565b611011838260ff166119cf565b8260098260ff16610100811061102a576110296129d8565b5b0160006101000a81548173ffffffffffffffffffffffffffffffffffffffff021916908373ffffffffffffffffffffffffffffffffffffffff1602179055508060ff16915050919050565b61107d61122b565b73ffffffffffffffffffffffffffffffffffffffff1661109b610a75565b73ffffffffffffffffffffffffffffffffffffffff16146110fa576110be61122b565b6040517f118cdaa70000000000000000000000000000000000000000000000000000000081526004016110f19190612303565b60405180910390fd5b565b60007f01ffc9a7000000000000000000000000000000000000000000000000000000007bffffffffffffffffffffffffffffffffffffffffffffffffffffffff1916827bffffffffffffffffffffffffffffffffffffffffffffffffffffffff1916149050919050565b60008061117283611ac8565b9050600073ffffffffffffffffffffffffffffffffffffffff168173ffffffffffffffffffffffffffffffffffffffff16036111e557826040517f7e2732890000000000000000000000000000000000000000000000000000000081526004016111dc9190612419565b60405180910390fd5b80915050919050565b60006004600083815260200190815260200160002060009054906101000a900473ffffffffffffffffffffffffffffffffffffffff169050919050565b600033905090565b6112408383836001611b05565b505050565b60008061125184611ac8565b9050600073ffffffffffffffffffffffffffffffffffffffff168373ffffffffffffffffffffffffffffffffffffffff161461129357611292818486611cca565b5b600073ffffffffffffffffffffffffffffffffffffffff168173ffffffffffffffffffffffffffffffffffffffff1614611324576112d5600085600080611b05565b6001600360008373ffffffffffffffffffffffffffffffffffffffff1673ffffffffffffffffffffffffffffffffffffffff168152602001908152602001600020600082825403925050819055505b600073ffffffffffffffffffffffffffffffffffffffff168573ffffffffffffffffffffffffffffffffffffffff16146113a7576001600360008773ffffffffffffffffffffffffffffffffffffffff1673ffffffffffffffffffffffffffffffffffffffff168152602001908152602001600020600082825401925050819055505b846002600086815260200190815260200160002060006101000a81548173ffffffffffffffffffffffffffffffffffffffff021916908373ffffffffffffffffffffffffffffffffffffffff160217905550838573ffffffffffffffffffffffffffffffffffffffff168273ffffffffffffffffffffffffffffffffffffffff167fddf252ad1be2c89b69c2b068fc378daa952ba7f163c4a11628f55a4df523b3ef60405160405180910390a4809150509392505050565b6000600660009054906101000a900473ffffffffffffffffffffffffffffffffffffffff16905081600660006101000a81548173ffffffffffffffffffffffffffffffffffffffff021916908373ffffffffffffffffffffffffffffffffffffffff1602179055508173ffffffffffffffffffffffffffffffffffffffff168173ffffffffffffffffffffffffffffffffffffffff167f8be0079c531659141344cd1fd0a4f28419497f9722a3daafe3b4186f6b6457e060405160405180910390a35050565b600073ffffffffffffffffffffffffffffffffffffffff168273ffffffffffffffffffffffffffffffffffffffff160361159657816040517f5b08ba1800000000000000000000000000000000000000000000000000000000815260040161158d9190612303565b60405180910390fd5b80600560008573ffffffffffffffffffffffffffffffffffffffff1673ffffffffffffffffffffffffffffffffffffffff16815260200190815260200160002060008473ffffffffffffffffffffffffffffffffffffffff1673ffffffffffffffffffffffffffffffffffffffff16815260200190815260200160002060006101000a81548160ff0219169083151502179055508173ffffffffffffffffffffffffffffffffffffffff168373ffffffffffffffffffffffffffffffffffffffff167f17307eab39ab6107e8899845ad3d59bd9653f200f220920489ca2b5937696c318360405161168791906121c4565b60405180910390a3505050565b60008373ffffffffffffffffffffffffffffffffffffffff163b1115611845578273ffffffffffffffffffffffffffffffffffffffff1663150b7a026116d861122b565b8685856040518563ffffffff1660e01b81526004016116fa9493929190612a5c565b6020604051808303816000875af192505050801561173657506040513d601f19601f820116820180604052508101906117339190612abd565b60015b6117ba573d8060008114611766576040519150601f19603f3d011682016040523d82523d6000602084013e61176b565b606091505b5060008151036117b257836040517f64a0ae920000000000000000000000000000000000000000000000000000000081526004016117a99190612303565b60405180910390fd5b805181602001fd5b63150b7a0260e01b7bffffffffffffffffffffffffffffffffffffffffffffffffffffffff1916817bffffffffffffffffffffffffffffffffffffffffffffffffffffffff19161461184357836040517f64a0ae9200000000000000000000000000000000000000000000000000000000815260040161183a9190612303565b60405180910390fd5b505b50505050565b606060405180602001604052806000815250905090565b60606000600161187184611d8e565b01905060008167ffffffffffffffff8111156118905761188f6124aa565b5b6040519080825280601f01601f1916602001820160405280156118c25781602001600182028036833780820191505090505b509050600082602001820190505b600115611925578080600190039150507f3031323334353637383961626364656600000000000000000000000000000000600a86061a8153600a858161191957611918612aea565b5b049450600085036118d0575b819350505050919050565b6119ca83838360405160240161194893929190612b19565b6040516020818303038152906040527f1c7ec448000000000000000000000000000000000000000000000000000000007bffffffffffffffffffffffffffffffffffffffffffffffffffffffff19166020820180517bffffffffffffffffffffffffffffffffffffffffffffffffffffffff8381831617835250505050611ee1565b505050565b600073ffffffffffffffffffffffffffffffffffffffff168273ffffffffffffffffffffffffffffffffffffffff1603611a415760006040517f64a0ae92000000000000000000000000000000000000000000000000000000008152600401611a389190612303565b60405180910390fd5b6000611a4f83836000611245565b9050600073ffffffffffffffffffffffffffffffffffffffff168173ffffffffffffffffffffffffffffffffffffffff1614611ac35760006040517f73c6ac6e000000000000000000000000000000000000000000000000000000008152600401611aba9190612303565b60405180910390fd5b505050565b60006002600083815260200190815260200160002060009054906101000a900473ffffffffffffffffffffffffffffffffffffffff169050919050565b8080611b3e5750600073ffffffffffffffffffffffffffffffffffffffff168273ffffffffffffffffffffffffffffffffffffffff1614155b15611c72576000611b4e84611166565b9050600073ffffffffffffffffffffffffffffffffffffffff168373ffffffffffffffffffffffffffffffffffffffff1614158015611bb957508273ffffffffffffffffffffffffffffffffffffffff168173ffffffffffffffffffffffffffffffffffffffff1614155b8015611bcc5750611bca8184610ca3565b155b15611c0e57826040517fa9fbf51f000000000000000000000000000000000000000000000000000000008152600401611c059190612303565b60405180910390fd5b8115611c7057838573ffffffffffffffffffffffffffffffffffffffff168273ffffffffffffffffffffffffffffffffffffffff167f8c5be1e5ebec7d5bd14f71427d1e84f3dd0314c0f7b2291e5b200ac8c7c3b92560405160405180910390a45b505b836004600085815260200190815260200160002060006101000a81548173ffffffffffffffffffffffffffffffffffffffff021916908373ffffffffffffffffffffffffffffffffffffffff16021790555050505050565b611cd5838383611efb565b611d8957600073ffffffffffffffffffffffffffffffffffffffff168373ffffffffffffffffffffffffffffffffffffffff1603611d4a57806040517f7e273289000000000000000000000000000000000000000000000000000000008152600401611d419190612419565b60405180910390fd5b81816040517f177e802f000000000000000000000000000000000000000000000000000000008152600401611d80929190612b57565b60405180910390fd5b505050565b600080600090507a184f03e93ff9f4daa797ed6e38ed64bf6a1f0100000000000000008310611dec577a184f03e93ff9f4daa797ed6e38ed64bf6a1f0100000000000000008381611de257611de1612aea565b5b0492506040810190505b6d04ee2d6d415b85acef81000000008310611e29576d04ee2d6d415b85acef81000000008381611e1f57611e1e612aea565b5b0492506020810190505b662386f26fc100008310611e5857662386f26fc100008381611e4e57611e4d612aea565b5b0492506010810190505b6305f5e1008310611e81576305f5e1008381611e7757611e76612aea565b5b0492506008810190505b6127108310611ea6576127108381611e9c57611e9b612aea565b5b0492506004810190505b60648310611ec95760648381611ebf57611ebe612aea565b5b0492506002810190505b600a8310611ed8576001810190505b80915050919050565b611ef881611ef0611fbc611fdd565b63ffffffff16565b50565b60008073ffffffffffffffffffffffffffffffffffffffff168373ffffffffffffffffffffffffffffffffffffffff1614158015611fb357508273ffffffffffffffffffffffffffffffffffffffff168473ffffffffffffffffffffffffffffffffffffffff161480611f745750611f738484610ca3565b5b80611fb257508273ffffffffffffffffffffffffffffffffffffffff16611f9a836111ee565b73ffffffffffffffffffffffffffffffffffffffff16145b5b90509392505050565b60006a636f6e736f6c652e6c6f679050600080835160208501845afa505050565b61200c819050919050565b60405180612000016040528061010090602082028036833780820191505090505090565b612014612b80565b565b60006101009050919050565b600081905092915050565b6000819050919050565b600073ffffffffffffffffffffffffffffffffffffffff82169050919050565b600061206282612037565b9050919050565b61207281612057565b82525050565b60006120848383612069565b60208301905092915050565b6000602082019050919050565b6120a681612016565b6120b08184612022565b92506120bb8261202d565b8060005b838110156120ec5781516120d38782612078565b96506120de83612090565b9250506001810190506120bf565b505050505050565b60006120008201905061210a600083018461209d565b92915050565b6000604051905090565b600080fd5b600080fd5b60007fffffffff0000000000000000000000000000000000000000000000000000000082169050919050565b61215981612124565b811461216457600080fd5b50565b60008135905061217681612150565b92915050565b6000602082840312156121925761219161211a565b5b60006121a084828501612167565b91505092915050565b60008115159050919050565b6121be816121a9565b82525050565b60006020820190506121d960008301846121b5565b92915050565b600081519050919050565b600082825260208201905092915050565b60005b838110156122195780820151818401526020810190506121fe565b60008484015250505050565b6000601f19601f8301169050919050565b6000612241826121df565b61224b81856121ea565b935061225b8185602086016121fb565b61226481612225565b840191505092915050565b600060208201905081810360008301526122898184612236565b905092915050565b6000819050919050565b6122a481612291565b81146122af57600080fd5b50565b6000813590506122c18161229b565b92915050565b6000602082840312156122dd576122dc61211a565b5b60006122eb848285016122b2565b91505092915050565b6122fd81612057565b82525050565b600060208201905061231860008301846122f4565b92915050565b61232781612057565b811461233257600080fd5b50565b6000813590506123448161231e565b92915050565b600080604083850312156123615761236061211a565b5b600061236f85828601612335565b9250506020612380858286016122b2565b9150509250929050565b6000806000606084860312156123a3576123a261211a565b5b60006123b186828701612335565b93505060206123c286828701612335565b92505060406123d3868287016122b2565b9150509250925092565b6000602082840312156123f3576123f261211a565b5b600061240184828501612335565b91505092915050565b61241381612291565b82525050565b600060208201905061242e600083018461240a565b92915050565b61243d816121a9565b811461244857600080fd5b50565b60008135905061245a81612434565b92915050565b600080604083850312156124775761247661211a565b5b600061248585828601612335565b92505060206124968582860161244b565b9150509250929050565b600080fd5b600080fd5b7f4e487b7100000000000000000000000000000000000000000000000000000000600052604160045260246000fd5b6124e282612225565b810181811067ffffffffffffffff82111715612501576125006124aa565b5b80604052505050565b6000612514612110565b905061252082826124d9565b919050565b600067ffffffffffffffff8211156125405761253f6124aa565b5b61254982612225565b9050602081019050919050565b82818337600083830152505050565b600061257861257384612525565b61250a565b905082815260208101848484011115612594576125936124a5565b5b61259f848285612556565b509392505050565b600082601f8301126125bc576125bb6124a0565b5b81356125cc848260208601612565565b91505092915050565b600080600080608085870312156125ef576125ee61211a565b5b60006125fd87828801612335565b945050602061260e87828801612335565b935050604061261f878288016122b2565b925050606085013567ffffffffffffffff8111156126405761263f61211f565b5b61264c878288016125a7565b91505092959194509250565b6000806040838503121561266f5761266e61211a565b5b600061267d85828601612335565b925050602061268e85828601612335565b9150509250929050565b600080fd5b600080fd5b60008083601f8401126126b8576126b76124a0565b5b8235905067ffffffffffffffff8111156126d5576126d4612698565b5b6020830191508360018202830111156126f1576126f061269d565b5b9250929050565b6000806020838503121561270f5761270e61211a565b5b600083013567ffffffffffffffff81111561272d5761272c61211f565b5b612739858286016126a2565b92509250509250929050565b7f4e487b7100000000000000000000000000000000000000000000000000000000600052602260045260246000fd5b6000600282049050600182168061278c57607f821691505b60208210810361279f5761279e612745565b5b50919050565b60006060820190506127ba60008301866122f4565b6127c7602083018561240a565b6127d460408301846122f4565b949350505050565b7f416c726561647920726567697374657265640000000000000000000000000000600082015250565b60006128126012836121ea565b915061281d826127dc565b602082019050919050565b6000602082019050818103600083015261284181612805565b9050919050565b600081905092915050565b600061285e826121df565b6128688185612848565b93506128788185602086016121fb565b80840191505092915050565b60006128908285612853565b915061289c8284612853565b91508190509392505050565b7f416c72656164792070656e64696e670000000000000000000000000000000000600082015250565b60006128de600f836121ea565b91506128e9826128a8565b602082019050919050565b6000602082019050818103600083015261290d816128d1565b9050919050565b600061292083856121ea565b935061292d838584612556565b61293683612225565b840190509392505050565b600060408201905061295660008301866122f4565b8181036020830152612969818486612914565b9050949350505050565b7f4e487b7100000000000000000000000000000000000000000000000000000000600052601160045260246000fd5b600060ff82169050919050565b60006129ba826129a2565b915060ff82036129cd576129cc612973565b5b600182019050919050565b7f4e487b7100000000000000000000000000000000000000000000000000000000600052603260045260246000fd5b600081519050919050565b600082825260208201905092915050565b6000612a2e82612a07565b612a388185612a12565b9350612a488185602086016121fb565b612a5181612225565b840191505092915050565b6000608082019050612a7160008301876122f4565b612a7e60208301866122f4565b612a8b604083018561240a565b8181036060830152612a9d8184612a23565b905095945050505050565b600081519050612ab781612150565b92915050565b600060208284031215612ad357612ad261211a565b5b6000612ae184828501612aa8565b91505092915050565b7f4e487b7100000000000000000000000000000000000000000000000000000000600052601260045260246000fd5b60006060820190508181036000830152612b338186612236565b9050612b42602083018561240a565b612b4f60408301846122f4565b949350505050565b6000604082019050612b6c60008301856122f4565b612b79602083018461240a565b9392505050565b7f4e487b7100000000000000000000000000000000000000000000000000000000600052605160045260246000fdfea2646970667358221220c3e52910ed974845c6eeb84f50a1eaa2fc665933bf8d94c7b6e77dc2edc67ae064736f6c63430008140033",
  "linkReferences": {},
  "deployedLinkReferences": {}
}