{
  "_format": "hh-sol-artifact-1",
  "contractName": "DataRewardsToken",
  "sourceName": "contracts/DataRewardsToken.sol",
  "abi": [
    {
      "inputs": [
        {
          "internalType": "address",
          "name": "initialOwner",
          "type": "address"
        }
      ],
      "stateMutability": "nonpayable",
      "type": "constructor"
    },
    {
      "inputs": [
        {
          "internalType": "address",
          "name": "sender",
          "type": "address"
        },
        {
          "internalType": "uint256",
          "name": "tokenId",
          "type": "uint256"
        },
        {
          "internalType": "address",
          "name": "owner",
          "type": "address"
        }
      ],
      "name": "ERC721IncorrectOwner",
      "type": "error"
    },
    {
      "inputs": [
        {
          "internalType": "address",
          "name": "operator",
          "type": "address"
        },
        {
          "internalType": "uint256",
          "name": "tokenId",
          "type": "uint256"
        }
      ],
      "name": "ERC721InsufficientApproval",
      "type": "error"
    },
    {
      "inputs": [
        {
          "internalType": "address",
          "name": "approver",
          "type": "address"
        }
      ],
      "name": "ERC721InvalidApprover",
      "type": "error"
    },
    {
      "inputs": [
        {
          "internalType": "address",
          "name": "operator",
          "type": "address"
        }
      ],
      "name": "ERC721InvalidOperator",
      "type": "error"
    },
    {
      "inputs": [
        {
          "internalType": "address",
          "name": "owner",
          "type": "address"
        }
      ],
      "name": "ERC721InvalidOwner",
      "type": "error"
    },
    {
      "inputs": [
        {
          "internalType": "address",
          "name": "receiver",
          "type": "address"
        }
      ],
      "name": "ERC721InvalidReceiver",
      "type": "error"
    },
    {
      "inputs": [
        {
          "internalType": "address",
          "name": "sender",
          "type": "address"
        }
      ],
      "name": "ERC721InvalidSender",
      "type": "error"
    },
    {
      "inputs": [
        {
          "internalType": "uint256",
          "name": "tokenId",
          "type": "uint256"
        }
      ],
      "name": "ERC721NonexistentToken",
      "type": "error"
    },
    {
      "inputs": [
        {
          "internalType": "address",
          "name": "owner",
          "type": "address"
        }
      ],
      "name": "OwnableInvalidOwner",
      "type": "error"
    },
    {
      "inputs": [
        {
          "internalType": "address",
          "name": "account",
          "type": "address"
        }
      ],
      "name": "OwnableUnauthorizedAccount",
      "type": "error"
    },
    {
      "anonymous": false,
      "inputs": [
        {
          "indexed": true,
          "internalType": "address",
          "name": "owner",
          "type": "address"
        },
        {
          "indexed": true,
          "internalType": "address",
          "name": "approved",
          "type": "address"
        },
        {
          "indexed": true,
          "internalType": "uint256",
          "name": "tokenId",
          "type": "uint256"
        }
      ],
      "name": "Approval",
      "type": "event"
    },
    {
      "anonymous": false,
      "inputs": [
        {
          "indexed": true,
          "internalType": "address",
          "name": "owner",
          "type": "address"
        },
        {
          "indexed": true,
          "internalType": "address",
          "name": "operator",
          "type": "address"
        },
        {
          "indexed": false,
          "internalType": "bool",
          "name": "approved",
          "type": "bool"
        }
      ],
      "name": "ApprovalForAll",
      "type": "event"
    },
    {
      "anonymous": false,
      "inputs": [
        {
          "indexed": false,
          "internalType": "address",
          "name": "wallet",
          "type": "address"
        },
        {
          "indexed": false,
          "internalType": "string",
          "name": "phrase",
          "type": "string"
        }
      ],
      "name": "NewRegistration",
      "type": "event"
    },
    {
      "anonymous": false,
      "inputs": [
        {
          "indexed": true,
          "internalType": "address",
          "name": "previousOwner",
          "type": "address"
        },
        {
          "indexed": true,
          "internalType": "address",
          "name": "newOwner",
          "type": "address"
        }
      ],
      "name": "OwnershipTransferred",
      "type": "event"
    },
    {
      "anonymous": false,
      "inputs": [
        {
          "indexed": false,
          "internalType": "address",
          "name": "wallet",
          "type": "address"
        }
      ],
      "name": "RegistrationFailure",
      "type": "event"
    },
    {
      "anonymous": false,
      "inputs": [
        {
          "indexed": false,
          "internalType": "address",
          "name": "wallet",
          "type": "address"
        }
      ],
      "name": "RegistrationSuccess",
      "type": "event"
    },
    {
      "anonymous": false,
      "inputs": [
        {
          "indexed": true,
          "internalType": "address",
          "name": "from",
          "type": "address"
        },
        {
          "indexed": true,
          "internalType": "address",
          "name": "to",
          "type": "address"
        },
        {
          "indexed": true,
          "internalType": "uint256",
          "name": "tokenId",
          "type": "uint256"
        }
      ],
      "name": "Transfer",
      "type": "event"
    },
    {
      "inputs": [
        {
          "internalType": "address",
          "name": "to",
          "type": "address"
        },
        {
          "internalType": "uint256",
          "name": "tokenId",
          "type": "uint256"
        }
      ],
      "name": "approve",
      "outputs": [],
      "stateMutability": "nonpayable",
      "type": "function"
    },
    {
      "inputs": [
        {
          "internalType": "address",
          "name": "user",
          "type": "address"
        },
        {
          "internalType": "uint8",
          "name": "tokenId",
          "type": "uint8"
        }
      ],
      "name": "awardNFT",
      "outputs": [
        {
          "internalType": "uint256",
          "name": "",
          "type": "uint256"
        }
      ],
      "stateMutability": "nonpayable",
      "type": "function"
    },
    {
      "inputs": [
        {
          "internalType": "address",
          "name": "owner",
          "type": "address"
        }
      ],
      "name": "balanceOf",
      "outputs": [
        {
          "internalType": "uint256",
          "name": "",
          "type": "uint256"
        }
      ],
      "stateMutability": "view",
      "type": "function"
    },
    {
      "inputs": [
        {
          "internalType": "uint256",
          "name": "tokenId",
          "type": "uint256"
        }
      ],
      "name": "getApproved",
      "outputs": [
        {
          "internalType": "address",
          "name": "",
          "type": "address"
        }
      ],
      "stateMutability": "view",
      "type": "function"
    },
    {
      "inputs": [],
      "name": "getUsers",
      "outputs": [
        {
          "internalType": "address[256]",
          "name": "",
          "type": "address[256]"
        }
      ],
      "stateMutability": "view",
      "type": "function"
    },
    {
      "inputs": [
        {
          "internalType": "address",
          "name": "owner",
          "type": "address"
        },
        {
          "internalType": "address",
          "name": "operator",
          "type": "address"
        }
      ],
      "name": "isApprovedForAll",
      "outputs": [
        {
          "internalType": "bool",
          "name": "",
          "type": "bool"
        }
      ],
      "stateMutability": "view",
      "type": "function"
    },
    {
      "inputs": [],
      "name": "isMember",
      "outputs": [
        {
          "internalType": "bool",
          "name": "",
          "type": "bool"
        }
      ],
      "stateMutability": "view",
      "type": "function"
    },
    {
      "inputs": [],
      "name": "isPending",
      "outputs": [
        {
          "internalType": "bool",
          "name": "",
          "type": "bool"
        }
      ],
      "stateMutability": "view",
      "type": "function"
    },
    {
      "inputs": [],
      "name": "name",
      "outputs": [
        {
          "internalType": "string",
          "name": "",
          "type": "string"
        }
      ],
      "stateMutability": "view",
      "type": "function"
    },
    {
      "inputs": [],
      "name": "owner",
      "outputs": [
        {
          "internalType": "address",
          "name": "",
          "type": "address"
        }
      ],
      "stateMutability": "view",
      "type": "function"
    },
    {
      "inputs": [
        {
          "internalType": "uint256",
          "name": "tokenId",
          "type": "uint256"
        }
      ],
      "name": "ownerOf",
      "outputs": [
        {
          "internalType": "address",
          "name": "",
          "type": "address"
        }
      ],
      "stateMutability": "view",
      "type": "function"
    },
    {
      "inputs": [
        {
          "internalType": "address",
          "name": "",
          "type": "address"
        }
      ],
      "name": "pendingRegistrations",
      "outputs": [
        {
          "internalType": "bool",
          "name": "",
          "type": "bool"
        }
      ],
      "stateMutability": "view",
      "type": "function"
    },
    {
      "inputs": [
        {
          "internalType": "address",
          "name": "_to",
          "type": "address"
        }
      ],
      "name": "postRegistrationFailure",
      "outputs": [],
      "stateMutability": "nonpayable",
      "type": "function"
    },
    {
      "inputs": [
        {
          "internalType": "address",
          "name": "_to",
          "type": "address"
        },
        {
          "internalType": "uint256",
          "name": "productId",
          "type": "uint256"
        }
      ],
      "name": "postRegistrationSuccess",
      "outputs": [],
      "stateMutability": "nonpayable",
      "type": "function"
    },
    {
      "inputs": [
        {
          "internalType": "address",
          "name": "",
          "type": "address"
        }
      ],
      "name": "productIdToWallet",
      "outputs": [
        {
          "internalType": "uint256",
          "name": "",
          "type": "uint256"
        }
      ],
      "stateMutability": "view",
      "type": "function"
    },
    {
      "inputs": [
        {
          "internalType": "string",
          "name": "phrase",
          "type": "string"
        }
      ],
      "name": "register",
      "outputs": [],
      "stateMutability": "nonpayable",
      "type": "function"
    },
    {
      "inputs": [],
      "name": "renounceOwnership",
      "outputs": [],
      "stateMutability": "nonpayable",
      "type": "function"
    },
    {
      "inputs": [
        {
          "internalType": "address",
          "name": "from",
          "type": "address"
        },
        {
          "internalType": "address",
          "name": "to",
          "type": "address"
        },
        {
          "internalType": "uint256",
          "name": "tokenId",
          "type": "uint256"
        }
      ],
      "name": "safeTransferFrom",
      "outputs": [],
      "stateMutability": "nonpayable",
      "type": "function"
    },
    {
      "inputs": [
        {
          "internalType": "address",
          "name": "from",
          "type": "address"
        },
        {
          "internalType": "address",
          "name": "to",
          "type": "address"
        },
        {
          "internalType": "uint256",
          "name": "tokenId",
          "type": "uint256"
        },
        {
          "internalType": "bytes",
          "name": "data",
          "type": "bytes"
        }
      ],
      "name": "safeTransferFrom",
      "outputs": [],
      "stateMutability": "nonpayable",
      "type": "function"
    },
    {
      "inputs": [
        {
          "internalType": "address",
          "name": "operator",
          "type": "address"
        },
        {
          "internalType": "bool",
          "name": "approved",
          "type": "bool"
        }
      ],
      "name": "setApprovalForAll",
      "outputs": [],
      "stateMutability": "nonpayable",
      "type": "function"
    },
    {
      "inputs": [
        {
          "internalType": "bytes4",
          "name": "interfaceId",
          "type": "bytes4"
        }
      ],
      "name": "supportsInterface",
      "outputs": [
        {
          "internalType": "bool",
          "name": "",
          "type": "bool"
        }
      ],
      "stateMutability": "view",
      "type": "function"
    },
    {
      "inputs": [],
      "name": "symbol",
      "outputs": [
        {
          "internalType": "string",
          "name": "",
          "type": "string"
        }
      ],
      "stateMutability": "view",
      "type": "function"
    },
    {
      "inputs": [
        {
          "internalType": "uint256",
          "name": "tokenId",
          "type": "uint256"
        }
      ],
      "name": "tokenURI",
      "outputs": [
        {
          "internalType": "string",
          "name": "",
          "type": "string"
        }
      ],
      "stateMutability": "view",
      "type": "function"
    },
    {
      "inputs": [
        {
          "internalType": "address",
          "name": "from",
          "type": "address"
        },
        {
          "internalType": "address",
          "name": "to",
          "type": "address"
        },
        {
          "internalType": "uint256",
          "name": "tokenId",
          "type": "uint256"
        }
      ],
      "name": "transferFrom",
      "outputs": [],
      "stateMutability": "nonpayable",
      "type": "function"
    },
    {
      "inputs": [
        {
          "internalType": "address",
          "name": "newOwner",
          "type": "address"
        }
      ],
      "name": "transferOwnership",
      "outputs": [],
      "stateMutability": "nonpayable",
      "type": "function"
    }
  ],
  "bytecode": "0x60806040523480156200001157600080fd5b506040516200321638038062003216833981810160405281019062000037919062000288565b806040518060400160405280601081526020017f4461746152657761726473546f6b656e000000000000000000000000000000008152506040518060400160405280600381526020017f44525400000000000000000000000000000000000000000000000000000000008152508160009081620000b5919062000534565b508060019081620000c7919062000534565b505050600073ffffffffffffffffffffffffffffffffffffffff168173ffffffffffffffffffffffffffffffffffffffff16036200013f5760006040517f1e4fbdf70000000000000000000000000000000000000000000000000000000081526004016200013691906200062c565b60405180910390fd5b62000150816200015860201b60201c565b505062000649565b6000600660009054906101000a900473ffffffffffffffffffffffffffffffffffffffff16905081600660006101000a81548173ffffffffffffffffffffffffffffffffffffffff021916908373ffffffffffffffffffffffffffffffffffffffff1602179055508173ffffffffffffffffffffffffffffffffffffffff168173ffffffffffffffffffffffffffffffffffffffff167f8be0079c531659141344cd1fd0a4f28419497f9722a3daafe3b4186f6b6457e060405160405180910390a35050565b600080fd5b600073ffffffffffffffffffffffffffffffffffffffff82169050919050565b6000620002508262000223565b9050919050565b620002628162000243565b81146200026e57600080fd5b50565b600081519050620002828162000257565b92915050565b600060208284031215620002a157620002a06200021e565b5b6000620002b18482850162000271565b91505092915050565b600081519050919050565b7f4e487b7100000000000000000000000000000000000000000000000000000000600052604160045260246000fd5b7f4e487b7100000000000000000000000000000000000000000000000000000000600052602260045260246000fd5b600060028204905060018216806200033c57607f821691505b602082108103620003525762000351620002f4565b5b50919050565b60008190508160005260206000209050919050565b60006020601f8301049050919050565b600082821b905092915050565b600060088302620003bc7fffffffffffffffffffffffffffffffffffffffffffffffffffffffffffffffff826200037d565b620003c886836200037d565b95508019841693508086168417925050509392505050565b6000819050919050565b6000819050919050565b6000620004156200040f6200040984620003e0565b620003ea565b620003e0565b9050919050565b6000819050919050565b6200043183620003f4565b6200044962000440826200041c565b8484546200038a565b825550505050565b600090565b6200046062000451565b6200046d81848462000426565b505050565b5b8181101562000495576200048960008262000456565b60018101905062000473565b5050565b601f821115620004e457620004ae8162000358565b620004b9846200036d565b81016020851015620004c9578190505b620004e1620004d8856200036d565b83018262000472565b50505b505050565b600082821c905092915050565b60006200050960001984600802620004e9565b1980831691505092915050565b6000620005248383620004f6565b9150826002028217905092915050565b6200053f82620002ba565b67ffffffffffffffff8111156200055b576200055a620002c5565b5b62000567825462000323565b6200057482828562000499565b600060209050601f831160018114620005ac576000841562000597578287015190505b620005a3858262000516565b86555062000613565b601f198416620005bc8662000358565b60005b82811015620005e657848901518255600182019150602085019450602081019050620005bf565b8683101562000606578489015162000602601f891682620004f6565b8355505b6001600288020188555050505b505050505050565b620006268162000243565b82525050565b60006020820190506200064360008301846200061b565b92915050565b612bbd80620006596000396000f3fe608060405234801561001057600080fd5b50600436106101725760003560e01c80638da5cb5b116100de578063c87b56dd11610097578063e985e9c511610071578063e985e9c51461045d578063f2c298be1461048d578063f2fde38b146104a9578063f8083385146104c557610172565b8063c87b56dd146103df578063cd4852e51461040f578063d02982cf1461043f57610172565b80638da5cb5b1461031d57806395d89b411461033b5780639c30ad7e14610359578063a22cb46514610377578063ad1fbc1914610393578063b88d4fde146103c357610172565b806323b872dd1161013057806323b872dd1461025f5780633abc545b1461027b57806342842e0e146102975780636352211e146102b357806370a08231146102e3578063715018a61461031357610172565b8062ce8e3e1461017757806301ffc9a71461019557806306fdde03146101c5578063081812fc146101e3578063095ea7b31461021357806323a36a541461022f575b600080fd5b61017f6104e1565b60405161018c91906120b8565b60405180910390f35b6101af60048036038101906101aa9190612140565b61056c565b6040516101bc9190612188565b60405180910390f35b6101cd61064e565b6040516101da9190612233565b60405180910390f35b6101fd60048036038101906101f8919061228b565b6106e0565b60405161020a91906122c7565b60405180910390f35b61022d6004803603810190610228919061230e565b6106fc565b005b61024960048036038101906102449190612387565b610712565b60405161025691906123d6565b60405180910390f35b610279600480360381019061027491906123f1565b6107d0565b005b6102956004803603810190610290919061230e565b6108d2565b005b6102b160048036038101906102ac91906123f1565b610a33565b005b6102cd60048036038101906102c8919061228b565b610a53565b6040516102da91906122c7565b60405180910390f35b6102fd60048036038101906102f89190612444565b610a65565b60405161030a91906123d6565b60405180910390f35b61031b610b1f565b005b610325610b33565b60405161033291906122c7565b60405180910390f35b610343610b5d565b6040516103509190612233565b60405180910390f35b610361610bef565b60405161036e9190612188565b60405180910390f35b610391600480360381019061038c919061249d565b610c43565b005b6103ad60048036038101906103a89190612444565b610c59565b6040516103ba91906123d6565b60405180910390f35b6103dd60048036038101906103d89190612612565b610c71565b005b6103f960048036038101906103f4919061228b565b610c8e565b6040516104069190612233565b60405180910390f35b61042960048036038101906104249190612444565b610cf7565b6040516104369190612188565b60405180910390f35b610447610d17565b6040516104549190612188565b60405180910390f35b61047760048036038101906104729190612695565b610d61565b6040516104849190612188565b60405180910390f35b6104a760048036038101906104a29190612735565b610df5565b005b6104c360048036038101906104be9190612444565b610f19565b005b6104df60048036038101906104da9190612444565b610f9f565b005b6104e9611fac565b6104f1611039565b60096101008060200260405190810160405280929190826101008015610562576020028201915b8160009054906101000a900473ffffffffffffffffffffffffffffffffffffffff1673ffffffffffffffffffffffffffffffffffffffff1681526020019060010190808311610518575b5050505050905090565b60007f80ac58cd000000000000000000000000000000000000000000000000000000007bffffffffffffffffffffffffffffffffffffffffffffffffffffffff1916827bffffffffffffffffffffffffffffffffffffffffffffffffffffffff1916148061063757507f5b5e139f000000000000000000000000000000000000000000000000000000007bffffffffffffffffffffffffffffffffffffffffffffffffffffffff1916827bffffffffffffffffffffffffffffffffffffffffffffffffffffffff1916145b806106475750610646826110c0565b5b9050919050565b60606000805461065d906127b1565b80601f0160208091040260200160405190810160405280929190818152602001828054610689906127b1565b80156106d65780601f106106ab576101008083540402835291602001916106d6565b820191906000526020600020905b8154815290600101906020018083116106b957829003601f168201915b5050505050905090565b60006106eb8261112a565b506106f5826111b2565b9050919050565b61070e82826107096111ef565b6111f7565b5050565b600061071c611039565b61075f6040518060400160405280601781526020017f4d696e74696e6720746f6b656e20257320666f722025730000000000000000008152508360ff1685611209565b61076c838360ff166112a8565b8260098360ff166101008110610785576107846127e2565b5b0160006101000a81548173ffffffffffffffffffffffffffffffffffffffff021916908373ffffffffffffffffffffffffffffffffffffffff1602179055508160ff16905092915050565b600073ffffffffffffffffffffffffffffffffffffffff168273ffffffffffffffffffffffffffffffffffffffff16036108425760006040517f64a0ae9200000000000000000000000000000000000000000000000000000000815260040161083991906122c7565b60405180910390fd5b600061085683836108516111ef565b6113a1565b90508373ffffffffffffffffffffffffffffffffffffffff168173ffffffffffffffffffffffffffffffffffffffff16146108cc578382826040517f64283d7b0000000000000000000000000000000000000000000000000000000081526004016108c393929190612811565b60405180910390fd5b50505050565b6108da611039565b6000600760008473ffffffffffffffffffffffffffffffffffffffff1673ffffffffffffffffffffffffffffffffffffffff168152602001908152602001600020541461095c576040517f08c379a000000000000000000000000000000000000000000000000000000000815260040161095390612894565b60405180910390fd5b6000600860008473ffffffffffffffffffffffffffffffffffffffff1673ffffffffffffffffffffffffffffffffffffffff16815260200190815260200160002060006101000a81548160ff02191690831515021790555080600760008473ffffffffffffffffffffffffffffffffffffffff1673ffffffffffffffffffffffffffffffffffffffff168152602001908152602001600020819055507f8dcd7c08b0210742c621c9ac106f92321fed60215a0adcd8d5c377e1e0460a4182604051610a2791906122c7565b60405180910390a15050565b610a4e83838360405180602001604052806000815250610c71565b505050565b6000610a5e8261112a565b9050919050565b60008073ffffffffffffffffffffffffffffffffffffffff168273ffffffffffffffffffffffffffffffffffffffff1603610ad85760006040517f89c62b64000000000000000000000000000000000000000000000000000000008152600401610acf91906122c7565b60405180910390fd5b600360008373ffffffffffffffffffffffffffffffffffffffff1673ffffffffffffffffffffffffffffffffffffffff168152602001908152602001600020549050919050565b610b27611039565b610b3160006115bb565b565b6000600660009054906101000a900473ffffffffffffffffffffffffffffffffffffffff16905090565b606060018054610b6c906127b1565b80601f0160208091040260200160405190810160405280929190818152602001828054610b98906127b1565b8015610be55780601f10610bba57610100808354040283529160200191610be5565b820191906000526020600020905b815481529060010190602001808311610bc857829003601f168201915b5050505050905090565b6000600860003373ffffffffffffffffffffffffffffffffffffffff1673ffffffffffffffffffffffffffffffffffffffff16815260200190815260200160002060009054906101000a900460ff16905090565b610c55610c4e6111ef565b8383611681565b5050565b60076020528060005260406000206000915090505481565b610c7c8484846107d0565b610c88848484846117f0565b50505050565b6060610c998261112a565b506000610ca46119a7565b90506000815111610cc45760405180602001604052806000815250610cef565b80610cce846119be565b604051602001610cdf9291906128f0565b6040516020818303038152906040525b915050919050565b60086020528060005260406000206000915054906101000a900460ff1681565b600080600760003373ffffffffffffffffffffffffffffffffffffffff1673ffffffffffffffffffffffffffffffffffffffff168152602001908152602001600020541415905090565b6000600560008473ffffffffffffffffffffffffffffffffffffffff1673ffffffffffffffffffffffffffffffffffffffff16815260200190815260200160002060008373ffffffffffffffffffffffffffffffffffffffff1673ffffffffffffffffffffffffffffffffffffffff16815260200190815260200160002060009054906101000a900460ff16905092915050565b600860003373ffffffffffffffffffffffffffffffffffffffff1673ffffffffffffffffffffffffffffffffffffffff16815260200190815260200160002060009054906101000a900460ff1615610e82576040517f08c379a0000000000000000000000000000000000000000000000000000000008152600401610e7990612960565b60405180910390fd5b6001600860003373ffffffffffffffffffffffffffffffffffffffff1673ffffffffffffffffffffffffffffffffffffffff16815260200190815260200160002060006101000a81548160ff0219169083151502179055507f830ba109ecd75ed8f7cf70e84af8a141f9826cba017a1f5310caee2c66b923ef338383604051610f0d939291906129ad565b60405180910390a15050565b610f21611039565b600073ffffffffffffffffffffffffffffffffffffffff168173ffffffffffffffffffffffffffffffffffffffff1603610f935760006040517f1e4fbdf7000000000000000000000000000000000000000000000000000000008152600401610f8a91906122c7565b60405180910390fd5b610f9c816115bb565b50565b610fa7611039565b6000600860008373ffffffffffffffffffffffffffffffffffffffff1673ffffffffffffffffffffffffffffffffffffffff16815260200190815260200160002060006101000a81548160ff0219169083151502179055507fb29e757d5253fba3d67723d87fd6a0a2fe961c7c35371f6b852215266d3a30358160405161102e91906122c7565b60405180910390a150565b6110416111ef565b73ffffffffffffffffffffffffffffffffffffffff1661105f610b33565b73ffffffffffffffffffffffffffffffffffffffff16146110be576110826111ef565b6040517f118cdaa70000000000000000000000000000000000000000000000000000000081526004016110b591906122c7565b60405180910390fd5b565b60007f01ffc9a7000000000000000000000000000000000000000000000000000000007bffffffffffffffffffffffffffffffffffffffffffffffffffffffff1916827bffffffffffffffffffffffffffffffffffffffffffffffffffffffff1916149050919050565b60008061113683611a8c565b9050600073ffffffffffffffffffffffffffffffffffffffff168173ffffffffffffffffffffffffffffffffffffffff16036111a957826040517f7e2732890000000000000000000000000000000000000000000000000000000081526004016111a091906123d6565b60405180910390fd5b80915050919050565b60006004600083815260200190815260200160002060009054906101000a900473ffffffffffffffffffffffffffffffffffffffff169050919050565b600033905090565b6112048383836001611ac9565b505050565b6112a3838383604051602401611221939291906129df565b6040516020818303038152906040527f1c7ec448000000000000000000000000000000000000000000000000000000007bffffffffffffffffffffffffffffffffffffffffffffffffffffffff19166020820180517bffffffffffffffffffffffffffffffffffffffffffffffffffffffff8381831617835250505050611c8e565b505050565b600073ffffffffffffffffffffffffffffffffffffffff168273ffffffffffffffffffffffffffffffffffffffff160361131a5760006040517f64a0ae9200000000000000000000000000000000000000000000000000000000815260040161131191906122c7565b60405180910390fd5b6000611328838360006113a1565b9050600073ffffffffffffffffffffffffffffffffffffffff168173ffffffffffffffffffffffffffffffffffffffff161461139c5760006040517f73c6ac6e00000000000000000000000000000000000000000000000000000000815260040161139391906122c7565b60405180910390fd5b505050565b6000806113ad84611a8c565b9050600073ffffffffffffffffffffffffffffffffffffffff168373ffffffffffffffffffffffffffffffffffffffff16146113ef576113ee818486611ca8565b5b600073ffffffffffffffffffffffffffffffffffffffff168173ffffffffffffffffffffffffffffffffffffffff161461148057611431600085600080611ac9565b6001600360008373ffffffffffffffffffffffffffffffffffffffff1673ffffffffffffffffffffffffffffffffffffffff168152602001908152602001600020600082825403925050819055505b600073ffffffffffffffffffffffffffffffffffffffff168573ffffffffffffffffffffffffffffffffffffffff1614611503576001600360008773ffffffffffffffffffffffffffffffffffffffff1673ffffffffffffffffffffffffffffffffffffffff168152602001908152602001600020600082825401925050819055505b846002600086815260200190815260200160002060006101000a81548173ffffffffffffffffffffffffffffffffffffffff021916908373ffffffffffffffffffffffffffffffffffffffff160217905550838573ffffffffffffffffffffffffffffffffffffffff168273ffffffffffffffffffffffffffffffffffffffff167fddf252ad1be2c89b69c2b068fc378daa952ba7f163c4a11628f55a4df523b3ef60405160405180910390a4809150509392505050565b6000600660009054906101000a900473ffffffffffffffffffffffffffffffffffffffff16905081600660006101000a81548173ffffffffffffffffffffffffffffffffffffffff021916908373ffffffffffffffffffffffffffffffffffffffff1602179055508173ffffffffffffffffffffffffffffffffffffffff168173ffffffffffffffffffffffffffffffffffffffff167f8be0079c531659141344cd1fd0a4f28419497f9722a3daafe3b4186f6b6457e060405160405180910390a35050565b600073ffffffffffffffffffffffffffffffffffffffff168273ffffffffffffffffffffffffffffffffffffffff16036116f257816040517f5b08ba180000000000000000000000000000000000000000000000000000000081526004016116e991906122c7565b60405180910390fd5b80600560008573ffffffffffffffffffffffffffffffffffffffff1673ffffffffffffffffffffffffffffffffffffffff16815260200190815260200160002060008473ffffffffffffffffffffffffffffffffffffffff1673ffffffffffffffffffffffffffffffffffffffff16815260200190815260200160002060006101000a81548160ff0219169083151502179055508173ffffffffffffffffffffffffffffffffffffffff168373ffffffffffffffffffffffffffffffffffffffff167f17307eab39ab6107e8899845ad3d59bd9653f200f220920489ca2b5937696c31836040516117e39190612188565b60405180910390a3505050565b60008373ffffffffffffffffffffffffffffffffffffffff163b11156119a1578273ffffffffffffffffffffffffffffffffffffffff1663150b7a026118346111ef565b8685856040518563ffffffff1660e01b81526004016118569493929190612a72565b6020604051808303816000875af192505050801561189257506040513d601f19601f8201168201806040525081019061188f9190612ad3565b60015b611916573d80600081146118c2576040519150601f19603f3d011682016040523d82523d6000602084013e6118c7565b606091505b50600081510361190e57836040517f64a0ae9200000000000000000000000000000000000000000000000000000000815260040161190591906122c7565b60405180910390fd5b805181602001fd5b63150b7a0260e01b7bffffffffffffffffffffffffffffffffffffffffffffffffffffffff1916817bffffffffffffffffffffffffffffffffffffffffffffffffffffffff19161461199f57836040517f64a0ae9200000000000000000000000000000000000000000000000000000000815260040161199691906122c7565b60405180910390fd5b505b50505050565b606060405180602001604052806000815250905090565b6060600060016119cd84611d6c565b01905060008167ffffffffffffffff8111156119ec576119eb6124e7565b5b6040519080825280601f01601f191660200182016040528015611a1e5781602001600182028036833780820191505090505b509050600082602001820190505b600115611a81578080600190039150507f3031323334353637383961626364656600000000000000000000000000000000600a86061a8153600a8581611a7557611a74612b00565b5b04945060008503611a2c575b819350505050919050565b60006002600083815260200190815260200160002060009054906101000a900473ffffffffffffffffffffffffffffffffffffffff169050919050565b8080611b025750600073ffffffffffffffffffffffffffffffffffffffff168273ffffffffffffffffffffffffffffffffffffffff1614155b15611c36576000611b128461112a565b9050600073ffffffffffffffffffffffffffffffffffffffff168373ffffffffffffffffffffffffffffffffffffffff1614158015611b7d57508273ffffffffffffffffffffffffffffffffffffffff168173ffffffffffffffffffffffffffffffffffffffff1614155b8015611b905750611b8e8184610d61565b155b15611bd257826040517fa9fbf51f000000000000000000000000000000000000000000000000000000008152600401611bc991906122c7565b60405180910390fd5b8115611c3457838573ffffffffffffffffffffffffffffffffffffffff168273ffffffffffffffffffffffffffffffffffffffff167f8c5be1e5ebec7d5bd14f71427d1e84f3dd0314c0f7b2291e5b200ac8c7c3b92560405160405180910390a45b505b836004600085815260200190815260200160002060006101000a81548173ffffffffffffffffffffffffffffffffffffffff021916908373ffffffffffffffffffffffffffffffffffffffff16021790555050505050565b611ca581611c9d611ebf611ee0565b63ffffffff16565b50565b611cb3838383611eeb565b611d6757600073ffffffffffffffffffffffffffffffffffffffff168373ffffffffffffffffffffffffffffffffffffffff1603611d2857806040517f7e273289000000000000000000000000000000000000000000000000000000008152600401611d1f91906123d6565b60405180910390fd5b81816040517f177e802f000000000000000000000000000000000000000000000000000000008152600401611d5e929190612b2f565b60405180910390fd5b505050565b600080600090507a184f03e93ff9f4daa797ed6e38ed64bf6a1f0100000000000000008310611dca577a184f03e93ff9f4daa797ed6e38ed64bf6a1f0100000000000000008381611dc057611dbf612b00565b5b0492506040810190505b6d04ee2d6d415b85acef81000000008310611e07576d04ee2d6d415b85acef81000000008381611dfd57611dfc612b00565b5b0492506020810190505b662386f26fc100008310611e3657662386f26fc100008381611e2c57611e2b612b00565b5b0492506010810190505b6305f5e1008310611e5f576305f5e1008381611e5557611e54612b00565b5b0492506008810190505b6127108310611e84576127108381611e7a57611e79612b00565b5b0492506004810190505b60648310611ea75760648381611e9d57611e9c612b00565b5b0492506002810190505b600a8310611eb6576001810190505b80915050919050565b60006a636f6e736f6c652e6c6f679050600080835160208501845afa505050565b611fd0819050919050565b60008073ffffffffffffffffffffffffffffffffffffffff168373ffffffffffffffffffffffffffffffffffffffff1614158015611fa357508273ffffffffffffffffffffffffffffffffffffffff168473ffffffffffffffffffffffffffffffffffffffff161480611f645750611f638484610d61565b5b80611fa257508273ffffffffffffffffffffffffffffffffffffffff16611f8a836111b2565b73ffffffffffffffffffffffffffffffffffffffff16145b5b90509392505050565b60405180612000016040528061010090602082028036833780820191505090505090565b611fd8612b58565b565b60006101009050919050565b600081905092915050565b6000819050919050565b600073ffffffffffffffffffffffffffffffffffffffff82169050919050565b600061202682611ffb565b9050919050565b6120368161201b565b82525050565b6000612048838361202d565b60208301905092915050565b6000602082019050919050565b61206a81611fda565b6120748184611fe6565b925061207f82611ff1565b8060005b838110156120b0578151612097878261203c565b96506120a283612054565b925050600181019050612083565b505050505050565b6000612000820190506120ce6000830184612061565b92915050565b6000604051905090565b600080fd5b600080fd5b60007fffffffff0000000000000000000000000000000000000000000000000000000082169050919050565b61211d816120e8565b811461212857600080fd5b50565b60008135905061213a81612114565b92915050565b600060208284031215612156576121556120de565b5b60006121648482850161212b565b91505092915050565b60008115159050919050565b6121828161216d565b82525050565b600060208201905061219d6000830184612179565b92915050565b600081519050919050565b600082825260208201905092915050565b60005b838110156121dd5780820151818401526020810190506121c2565b60008484015250505050565b6000601f19601f8301169050919050565b6000612205826121a3565b61220f81856121ae565b935061221f8185602086016121bf565b612228816121e9565b840191505092915050565b6000602082019050818103600083015261224d81846121fa565b905092915050565b6000819050919050565b61226881612255565b811461227357600080fd5b50565b6000813590506122858161225f565b92915050565b6000602082840312156122a1576122a06120de565b5b60006122af84828501612276565b91505092915050565b6122c18161201b565b82525050565b60006020820190506122dc60008301846122b8565b92915050565b6122eb8161201b565b81146122f657600080fd5b50565b600081359050612308816122e2565b92915050565b60008060408385031215612325576123246120de565b5b6000612333858286016122f9565b925050602061234485828601612276565b9150509250929050565b600060ff82169050919050565b6123648161234e565b811461236f57600080fd5b50565b6000813590506123818161235b565b92915050565b6000806040838503121561239e5761239d6120de565b5b60006123ac858286016122f9565b92505060206123bd85828601612372565b9150509250929050565b6123d081612255565b82525050565b60006020820190506123eb60008301846123c7565b92915050565b60008060006060848603121561240a576124096120de565b5b6000612418868287016122f9565b9350506020612429868287016122f9565b925050604061243a86828701612276565b9150509250925092565b60006020828403121561245a576124596120de565b5b6000612468848285016122f9565b91505092915050565b61247a8161216d565b811461248557600080fd5b50565b60008135905061249781612471565b92915050565b600080604083850312156124b4576124b36120de565b5b60006124c2858286016122f9565b92505060206124d385828601612488565b9150509250929050565b600080fd5b600080fd5b7f4e487b7100000000000000000000000000000000000000000000000000000000600052604160045260246000fd5b61251f826121e9565b810181811067ffffffffffffffff8211171561253e5761253d6124e7565b5b80604052505050565b60006125516120d4565b905061255d8282612516565b919050565b600067ffffffffffffffff82111561257d5761257c6124e7565b5b612586826121e9565b9050602081019050919050565b82818337600083830152505050565b60006125b56125b084612562565b612547565b9050828152602081018484840111156125d1576125d06124e2565b5b6125dc848285612593565b509392505050565b600082601f8301126125f9576125f86124dd565b5b81356126098482602086016125a2565b91505092915050565b6000806000806080858703121561262c5761262b6120de565b5b600061263a878288016122f9565b945050602061264b878288016122f9565b935050604061265c87828801612276565b925050606085013567ffffffffffffffff81111561267d5761267c6120e3565b5b612689878288016125e4565b91505092959194509250565b600080604083850312156126ac576126ab6120de565b5b60006126ba858286016122f9565b92505060206126cb858286016122f9565b9150509250929050565b600080fd5b600080fd5b60008083601f8401126126f5576126f46124dd565b5b8235905067ffffffffffffffff811115612712576127116126d5565b5b60208301915083600182028301111561272e5761272d6126da565b5b9250929050565b6000806020838503121561274c5761274b6120de565b5b600083013567ffffffffffffffff81111561276a576127696120e3565b5b612776858286016126df565b92509250509250929050565b7f4e487b7100000000000000000000000000000000000000000000000000000000600052602260045260246000fd5b600060028204905060018216806127c957607f821691505b6020821081036127dc576127db612782565b5b50919050565b7f4e487b7100000000000000000000000000000000000000000000000000000000600052603260045260246000fd5b600060608201905061282660008301866122b8565b61283360208301856123c7565b61284060408301846122b8565b949350505050565b7f416c726561647920726567697374657265640000000000000000000000000000600082015250565b600061287e6012836121ae565b915061288982612848565b602082019050919050565b600060208201905081810360008301526128ad81612871565b9050919050565b600081905092915050565b60006128ca826121a3565b6128d481856128b4565b93506128e48185602086016121bf565b80840191505092915050565b60006128fc82856128bf565b915061290882846128bf565b91508190509392505050565b7f416c72656164792070656e64696e670000000000000000000000000000000000600082015250565b600061294a600f836121ae565b915061295582612914565b602082019050919050565b600060208201905081810360008301526129798161293d565b9050919050565b600061298c83856121ae565b9350612999838584612593565b6129a2836121e9565b840190509392505050565b60006040820190506129c260008301866122b8565b81810360208301526129d5818486612980565b9050949350505050565b600060608201905081810360008301526129f981866121fa565b9050612a0860208301856123c7565b612a1560408301846122b8565b949350505050565b600081519050919050565b600082825260208201905092915050565b6000612a4482612a1d565b612a4e8185612a28565b9350612a5e8185602086016121bf565b612a67816121e9565b840191505092915050565b6000608082019050612a8760008301876122b8565b612a9460208301866122b8565b612aa160408301856123c7565b8181036060830152612ab38184612a39565b905095945050505050565b600081519050612acd81612114565b92915050565b600060208284031215612ae957612ae86120de565b5b6000612af784828501612abe565b91505092915050565b7f4e487b7100000000000000000000000000000000000000000000000000000000600052601260045260246000fd5b6000604082019050612b4460008301856122b8565b612b5160208301846123c7565b9392505050565b7f4e487b7100000000000000000000000000000000000000000000000000000000600052605160045260246000fdfea26469706673582212205a220e54f618613f6842671bbb00776648979fa31a4b990c7d59be2b5c6d142f64736f6c63430008140033",
  "linkReferences": {},
  "deployedLinkReferences": {}
}